:020000040800F2
:10000000880D0020CD590008495900084B590008B7
:100010004D5900084F5900085159000800000000D0
:10002000000000000000000000000000535900081C
:100030005559000800000000575900085959000898
:10004000F9590008FD590008015A0008055A00082E
:10005000095A00080D5A0008115A0008155A0008DC
:10006000195A00081D5A0008215A0008255A00088C
:10007000295A00082D5A0008315A0008355A00083C
:10008000395A0008000000003D5A0008415A000893
:10009000455A0008495A00084D5A0008515A0008AC
:1000A000555A0008595A00085D5A0008615A00085C
:1000B000655A0008695A00086D5A0008715A00080C
:1000C000755A0008795A00087D5A0008815A0008BC
:1000D000855A0008895A00085D5900088D5A0008A1
:1000E000915A0008955A0008995A00089D5A00082C
:1000F000A15A0008A55A0008A95A000800000000EB
:1001000000000000AD5A000800000000B15A0008CD
:10011000B55A000800000000B95A0008BD5A00088E
:10012000C15A0008C55A0008C95A0008CD5A00082B
:10013000D15A00080000000000000000D55A000855
:10014000D95A0008DD5A0008000000000000000035
:10015000000000000000000000000000000000009F
:10016000000000000000000000000000E15A00084C
:10017000E55A000800000000000000000000000038
:1001800000000000E95A0008000000000000000024
:10019000000000000000000000000000000000005F
:1001A0000000000000000000ED5A0008F15A0008AD
:1001B000F55A0008F95A0008FD5A0008000000002E
:1001C00000000000015B00080000000000000000CB
:1001D000055B0008095B00082DE9F14FB0B09246BD
:1001E00004910DF142013A9A2B9199464A700020F0
:1001F0000AE01AF8011B0498309A904700280490EE
:1002000000F0B6860D98401C0D909AF8000050B191
:100210002528EED1002100220791089209910A9227
:100220000B910C9204E00D9800F0A4BE41F0010186
:100230001AF8010F2028F9D023280CD02B2804D03D
:100240002D2805D0302809D00BE041F00201EFE75E
:1002500041F00401ECE741F00801E9E741F0100149
:10026000E6E72A280FD1D9F8002052F8040BC9F884
:10027000002000280F9003D540420F9041F0040168
:100280000AF1010A14E00F92DFF828380AE00F980B
:10029000984205DA00EB800402EB4402303A0F92F8
:1002A0000AF1010A9AF80020A2F130000A28EED3E0
:1002B0009AF800002E2803D04FF0FF320E9229E06A
:1002C0001AF8010F2A2809D1D9F8000050F8042B98
:1002D000C9F800000E920AF1010A1BE02D280CBF9C
:1002E0000AF1010A002000220E92DFF8C8470BE055
:1002F00040B90E9AA24205DA02EB820503EB4503F0
:10030000303B0E930AF1010A9AF80030A3F1300253
:100310000A2AEDD3ADF84010DFF89C07784400F5C9
:10032000F3609AF8001000F057FF08B11AF8010BBB
:100330008DF842009DF84200682805D19AF8000027
:1003400068280CD1622106E06C2804BF9AF80000EE
:100350006C2804D171218DF842100AF1010A12A80B
:1003600006901AF801BBBBF125012CD01C3900F016
:10037000D081091F022940F2CC81133900F0238576
:10038000093900F0C681891E00F0B885491E00F0C9
:100390006585491E022940F2BC81091F00F05E8577
:1003A000491F00F02881491E00F00D85491E00F00C
:1003B000D080C91E0DD0891E00F00585C91E00F031
:1003C000028500F0A6BD25238DF84830012100F0FC
:1003D000ABBDD9F8000050F8044BC9F80000002C60
:1003E000059440F0A3802B994878002800F099806C
:1003F0004FF0FF340FF6843000F0FEFE201A40F07C
:10040000B78500F092BD6D1E40F0A9853096079D1E
:1004100012AF75B1309E17F8012B02A9304600F0DB
:1004200073FE002801D46D1EF5D10028309640F0EF
:100430009F850A9D3020002D8DF804000CDD309E34
:10044000012301AA02A9304600F06EFE002840F008
:100450008F856D1EF4D13096059F089D75B1309E35
:1004600017F8012B02A9304600F04EFE002801D4F7
:100470006D1EF5D10028309640F07A850B9D302016
:10048000002D8DF804000CDD309E012301AA02A985
:10049000304600F049FE002840F06A856D1EF4D118
:1004A000309605980899099D471875B1309E17F840
:1004B000012B02A9304600F027FE002801D46D1E52
:1004C000F5D10028309640F053850C9D3020002D4A
:1004D0008DF804000CDD309E012301AA02A93046EC
:1004E00000F022FE002840F043856D1EF4D13096C6
:1004F0009DF8400041077FF588AE2020002C8DF844
:1005000004007FF782AE309D012301AA02A928468C
:1005100000F00AFE002840F02B85641EF4D13095CF
:1005200073E60FF66440059000F0FFBC0E9D002DB1
:1005300004D5204600F080FE044607E02A46204607
:1005400000F096FE002814BF041B2C46089400F00F
:10055000ECBCD9F8001051F8040BC9F8001020F0D9
:100560000004002121F0FF3512ABCDE902450593CF
:10057000DDE9022306993C2413B90AB90E9898B113
:1005800002F00F053035641EEEB23A2EA8BF2735B3
:10059000120942EA03721B090D5508BF002A03D055
:1005A00005980D19A842EBD308190590C4F13C0237
:1005B0000E98089282420ADABDF84010821A4FF66D
:1005C000EF7001400A92ADF8401000F0AEBC002878
:1005D00040F1AB849DF8400000F01400102840F07A
:1005E000A4840F9B07990A985B1A1B1A9A1A002A6F
:1005F00040F39B84E5E32B99487820B14FF0FF341A
:100600000FF65430F8E69DF84200622861D0682861
:1006100017D06A283FD06C2806D0712847D074289C
:100620002CD07A281DD064E0D9F8001051F8040BC2
:10063000C9F80010002868D14FF0FF340FF63030B1
:10064000DAE6D9F8001051F8040BC9F8001020B907
:100650004FF0FF340FF61830CEE60D99018000F010
:1006600064BCD9F8001051F8040BC9F80010002838
:100670004BD14FF0FF340FF6F820BDE6D9F800104B
:1006800051F8040BC9F8001000283ED14FF0FF3498
:100690000FF6DC20B0E6D9F8001051F8040BC9F8C9
:1006A000001080B94FF0FF340FF6C420A4E6D9F84B
:1006B000001051F8040BC9F8001020B94FF0FF34B6
:1006C0000FF6AC2098E60D9AD317C0E9002300F08E
:1006D0002CBCD9F8001051F8040BC9F8001020B94F
:1006E0004FF0FF340FF6882086E60D99017000F078
:1006F0001CBCD9F8001051F8040BC9F8001020B93F
:100700004FF0FF340FF6682076E60D99016000F097
:100710000CBCD9F80020D21D22F00702C9F8002035
:10072000D2E900010832C9F80020CDE90201C80F62
:1007300002D007982D210AE0BDF84000810702D5BC
:1007400007982B2103E0C00705D50798202112AA9E
:100750001154401C0790DDE90223079912A8CDE946
:100760002C2308444BF020016129059021AC0BD0CB
:100770000E99002902D506210E9105E001BF4BF02C
:100780002001672901220E92DDE902235900491553
:10079000491C0DD11A030BD0ABF1610503211A2DB1
:1007A000089102D20FF6E41110E00FF6E4110DE00B
:1007B00059004915491C0DD11A030BD1ABF1610544
:1007C00003211A2D089119D30FF6CC11032200F042
:1007D0007BFDAAE3DDE90201CDE92E01DDE92E234F
:1007E00023F00047B7F5801F22F000060DD200224B
:1007F000002F08BF002E009203D116E00FF69411CF
:10080000E4E76A4600F06CFD0FE0DFF8DC08DFF893
:10081000DC1800EB17500090DDE92E234FF0FF307D
:100820001940DFF8CC7810403943CDE902014BF094
:10083000200061280DD1059830210170821CBBF188
:10084000610F05920CBF7821582141700798801CD8
:100850000790DDE9020120F0000231F0004308BFFB
:10086000002A02D10026002568E14BF02008B8F1EB
:10087000610F40F0B4800E98002847BF21210191FC
:10088000401C0190019FDDE92C017F1C0022002308
:10089000DDE9024500F05CFD00998DF8842038BF49
:1008A00085F00045091F002F00910DF1850653DDED
:1008B000204629460022002300F062FD4CD2480069
:1008C000400D00F11C0212D0002A10DD40F2FF732F
:1008D0009A4206DBDFF81C1805F0004001430020B7
:1008E00011E06FF31E5141EA025120460BE024F063
:1008F000000035F0004108BF00280FBF29461C2228
:10090000294600F055FD04460D4600F0EFFDFF1F9F
:10091000002F804609DD00F007FE02460B46204608
:10092000294600F013FE04460D46F01D0721B8F1DC
:10093000000F0CDD491E5EBF08F00F0200F8012D0C
:100940004FEA2818F3D502E0002200F8012D491ED5
:10095000FAD5C61D002FABDC0DF18500361A0198C3
:100960008642D8BF304600280DF1850430D4B0420D
:1009700006DA0DF185010A5C082AA8BF0F2100DA0A
:100980000021024621AB134400E0401E13F8015938
:10099000521E8D42F9D00F2904D10DF185018B5CD7
:1009A0005B1C8B54002A04D50099091D21AC401C06
:1009B0000091411E0CD46218ABF13A061378303323
:1009C000DDB23A2DA8BFF318491E02F80139F5D55A
:1009D0000E99002940F1B080421E0E92ACE00099C1
:1009E000DFF8142747F29750414391FBF2F2DDE91B
:1009F0002C45009225F00045D2F1070204DD204687
:100A0000294600F04EFB0BE052420020DFF8EC16C6
:100A100000F047FB02460B462046294600F008FE40
:100A20000446B8F1660F0E9806BF009F0A370627E6
:100A30003F18142FC8BF142730200D468DF88400AE
:100A40000DF18506002F39DD2046294600F014FF00
:100A500001460A4606F1080304200A26B2FBF6F610
:100A600006EB860EA2EB4E02303203F8012C0A226E
:100A7000B6FBF2F202EB820EA6EB4E063036401EBB
:100A800003F8026DE9D1083F002F03F10806D9DD14
:100A9000084600F005FF02460B462046294600F0B6
:100AA00055FD0022DFF8583600F008FF04460D46D9
:100AB000CAE700BFCBCCCC0C384F00000DF185004D
:100AC000361A0DF1850404E00098401E761E009051
:100AD000641C20783028F7D0B8F1660F02D1009955
:100AE000491C04E0B8F1650F0CBF012100210E98EC
:100AF00008188642B8BF701E00281DD4B04204DA20
:100B0000215C3429C8BF392100DC30210246631E34
:100B10009D1800E0401E15F80169521E8E42F9D062
:100B2000392902D1A15C491CA154002A04D500999D
:100B3000491C1C46401C00910646009D00F090FF99
:100B4000406A0778DDF8388030B2002802DC0126E0
:100B50000FF248644BF02000662808BF6D1C16D0C9
:100B6000672846D128B210F1040F48DB404546DA29
:100B70009DF840006D1C010703D430B24045B8BF5A
:100B8000804628B2B8EB000848BF4FF000080FFAC3
:100B900085FBBBF1000F00F3B5800898411C08915C
:100BA000302205990A54B8F1000F03DC9DF840008B
:100BB000010704D50898411C089105990F5418EBBA
:100BC0000B0FB8BFC8F100052DB268420B90A844C6
:100BD00032B29045B8BF4646059B089836B2099692
:100BE00032462146184400F06FFBA8EB06000C903B
:100BF000D2E0BBF1610F17D14FF0700B19E030B2AA
:100C0000404504DA9DF840100A0758BF8046B8F105
:100C1000010848BF4FF00008BBF1670F14BF4FF049
:100C2000450B4FF0650B04E0BBF1410F08BF4FF0DF
:100C3000500B0898411C0891B8F1000F059914F861
:100C4000012B0A5403DC9DF8400001071AD50898CF
:100C5000411C0891B8F1000F05990F5412DD761E62
:100C600030B280450598089BB8BF464632B221464F
:100C7000184400F029FB089936B271180891A8EBC6
:100C800006000B9005980899084429B2002980F8BD
:100C900000B003D42B224270821C04E02D2242704B
:100CA0000D46821C6D4200212CAB28460AE004460A
:100CB0000A2094FBF0F000EB8005A4EB450403F858
:100CC000014B491C00B20028F1DC012906DC4BF085
:100CD0002000652804BF302002F8010B00292CAB4E
:100CE00008D1302002F8010B06E0491E585C303074
:100CF00002F8010B0029F8DC059908980844121A3B
:100D0000099249E030B229B288421CDA0598089B62
:100D100032B22146184400F0D7FA089936B2711859
:100D2000ABEB0606B8F1000F08910B9603DC9DF8BB
:100D30004000020704D5059847540999491C0991B8
:100D4000CDF8308028E00598089B2AB22146184447
:100D500000F0BAFA0898761B5844B8F1000F0890D2
:100D600003DC9DF840100A0703D5411C0891059942
:100D70000F5430B280450598089BB8BF464632B242
:100D800004EB0B01184400F09FFA089836B23018B3
:100D90000890A8EB06000B909DF8400000F01400AE
:100DA000102840F0C280079A08990B988A18099970
:100DB00082180C988A1882180F98824280F2B580A7
:100DC000821A0A92B1E09DF84200622808D0682891
:100DD0000ED06A2814D06C281FD0712810D01CE0C7
:100DE000D9F8001051F8040BC9F80010C0B21AE08D
:100DF000D9F8001051F8040BC9F8001080B212E0C5
:100E0000D9F80020D21D22F00702C9F80020D2E94B
:100E100000010832C9F8002006E0D9F8001051F8A6
:100E2000040BC9F800100021CDE902019DF8400033
:100E300001075AD5DDE90223002B08BF002A54D050
:100E40004BF02000782850D1079812A930220A547C
:100E5000401C431C079301F800B046E09DF8420097
:100E6000622808D068280ED06A2814D06C281FD0B9
:100E7000712810D01CE0D9F8001051F8040BC9F803
:100E8000001040B21AE0D9F8001051F8040BC9F86C
:100E9000001000B212E0D9F80020D21D22F00702A3
:100EA000C9F80020D2E900010832C9F8002006E0A4
:100EB000D9F8001051F8040BC9F80010C117CDE99A
:100EC0000201002902D507982D210AE0BDF8400053
:100ED000810702D507982B2103E0C00705D50798A5
:100EE000202112AA1154401C079012A8079901440E
:100EF000059102A8594600F04FF816E0012007902E
:100F0000D9F8000050F8041BC9F800008DF848100B
:100F10000BE025210122BBF1000F8DF8481007924C
:100F200003D08DF849B0022107910F9A07980A99CA
:100F30000C9C121A0898521A0B99121A0998521AF4
:100F4000121A9DF84000141B41073FF560AA2020AB
:100F5000002C8DF804007FF75AAA309E2546012305
:100F600001AA02A9304600F0DFF800283FF44BAA9E
:100F70004FF0FF3031B0BDE8F08F00007072696E45
:100F800074665F733A206261642025732061726722
:100F9000756D656E740000002DE9FC4307466F29EE
:100FA0003E6908BF082405D041F02000782814BF0E
:100FB0000A2410243C25D7E90023642918BF692995
:100FC0009046994605D1002B03D5D8F1000869EB6E
:100FD0004909B9F1000F08BFB8F1000F0CD1386B07
:100FE00050B9082C39D197F83800010735D5302091
:100FF0003B2586F83B0030E08DF80010404649461E
:101000002246E31700F030FD3032D0B26D1E3A2890
:10101000019504DB9DF80000A0F151018A1872557A
:10102000404649462246E31700F01EFD80465FEA2F
:10103000010908BFB8F1000F03D0F86871198842A0
:10104000DCD3082C09D197F83800010705D5705D6D
:10105000302802D06D1E30207055C5F13C02BA61B7
:101060007119F960386B824208DA821A3A624FF6D7
:10107000EF70398F01403987BDE8F38300280ED522
:1010800097F8380000F01400102808D17B6B7969BC
:10109000386A5B1A1B1A9A1A002AC8BF3A62BDE85E
:1010A000F3832DE9D04306460F4614464FF000085F
:1010B000DFF8509012E0E00707D542464B46304635
:1010C000394600F0FBFB06460F464046494642467D
:1010D0004B4600F0F3FB641080468946002CEAD1B1
:1010E00030463946BDE8D08302FCFFFFFFFF0F808A
:1010F0000000E03F0000F07FA08601000000F03F0C
:1011000084D797410000244010B503460C46114691
:10111000A0689847A06020B1E06A401CE06200200F
:1011200010BD4FF0FF3010BDF8B505460E4617460E
:101130001C4600205CB117F8011BB068A847B060DE
:1011400030B1F06A401CF0620020641EF3D1F2BDA1
:101150004FF0FF30F2BD00007072696E74665F730D
:101160003A20256E20646973616C6C6F776564004A
:101170007072696E74663A2062616420256E206127
:101180007267756D656E7400000000006E616E0020
:101190004E414E00696E6600494E4600300030B444
:1011A000002513E050F8042BD30744BFA9F1010335
:1011B0009A18091F042942F8045BFAD213468C07D7
:1011C00044BF15809B1CC90748BF1D7050F8041B05
:1011D0000029E7D130BC7047C9B202788A421AB1FF
:1011E0001CBF10F8012FF9E718BF002070470268F4
:1011F000531C03601170704780B500B906A0054903
:101200000B681BB122220021984701E000F0AFFCDF
:10121000222002BD84090020636F6E7374726169BD
:101220006E742068616E646C65723A20626164203D
:101230006D6573736167650000F10103810704D078
:1012400010F8011B820781B1FAD10268A2F10131C5
:10125000914311F0803104BF50F8042FF6E709BA2A
:10126000B1FA81F100EBD100401CC01A70472E008A
:10127000C9B2830706D0521E22D310F8013B99420F
:10128000F7D11FE0083A13D302F1040241EA012129
:1012900041EA014150F8043B121F21BF4B40A3F12A
:1012A000013C2CEA030C1CF0803FF3D0C9B2001FB4
:1012B000083210F8013B521E28BF91EA030FF8D8FC
:1012C00018BF0120401E70474AB1000011F8013BD1
:1012D000521E00F8013B1CBF11F8013BF8E77047B4
:1012E00010B5144600F002F8226010BDC1F30A5395
:1012F00043B14A0012F5001F28D2A3F2FE32A1EB3F
:101300000251704750EA410C20D001F0004C31EA04
:101310000C01B1FA81F204BFB0FA80F3D2180B3A93
:10132000B2F120032CBF00FA03F1914041EA0C0115
:101330003EBFC2F1200C20FA0CF3194390405242F8
:1013400040F2FD33D21A01EB03517047002270477F
:101350004FF4001C1CEB410F94BF1CEB430F09E042
:1013600041EA030C50EA4C0C52EA0C0C03D29942AD
:1013700008BF9042704714BF8B4282427047000002
:101380004FF4001C1CEB410F94BF1CEB430F09E012
:1013900041EA030C50EA4C0C52EA0C0C03D28B428B
:1013A00008BF8242704714BF9942904270470000C4
:1013B000124254D440F2FF7C1CEA11530FD0634513
:1013C00031D09B1863453CBF01EB0251704701F0DF
:1013D000004141EA0C510020AFF30080704750EA11
:1013E000410320D001F0004C91EA0C011CD0B1FA6D
:1013F00081F30B3B9A420DD9D21A994051EA0C0164
:10140000C3F1200C20FA0CFC61449840531C40F2BC
:10141000FF7CD7E7914041EA0C01C2F1200C20FA91
:101420000CF3194390407047B0FA80F31533202B2A
:10143000E0D3202AEED3203A203B9A4209D9D21A8F
:1014400000FA03F141EA0C010020531C40F2FF7C3A
:10145000B8E700FA02F141EA0C010020704752425D
:1014600040F2FF7C1CEA11530DD06345DBD0B2EB98
:10147000030C3CBFA1EB025170470CF1010221EAC1
:10148000035141F4801150EA410CCCD001F0004CE2
:10149000352A27DC30B481EA0C01B2F1200309DAE5
:1014A000C2F12003044601FA03F5D0402843D1409D
:1014B0009C400CE0C3F12002450020FA03F418BF61
:1014C00044F0010421FA03F091400C43002174F12F
:1014D000004550F1000051EB0C01244230BC7FF478
:1014E0007BAF70476146002076E70000C1F30A53E6
:1014F00040F2FE329B1A14DDD3F120034FEAE17271
:1015000008DDC90241EA505141F00040D84080183E
:101510005040704703F2E13010B1D24382F00040F6
:101520007047002070470000C11768B14840401A5A
:10153000B0FA80F29040D21CC907C2F5846241EA39
:10154000025202EBD02140057047000070B44FF00A
:10155000004591EA030F40F10D836B40841A71EB53
:10156000030603D2001BB141121973414FF4001C52
:101570001CEB410F34BF7CEB430442E00C0DA4EBA9
:101580001356352E4FDC45EAC323DB0A45EAC12159
:10159000C912B6F120050DDD63FA05F6EB4086EAC7
:1015A0000305124218BF45F00105C01851F10001B2
:1015B0000CD213E062FA06F5F2405540F3415A406E
:1015C000B340F3405A408018594107D349085FEAB5
:1015D00030005FEA350528BF45F0010501F58011AF
:1015E000420875F1004250F1000041EB04514E00F9
:1015F00016F5001F70BC38BF70470020090D0905A3
:1016000070471CEB410F10D252EA43060BD0BCEBE3
:10161000410F05D80C0DAB43661E342EB6DD02E03B
:10162000AB438018594170BC704770BC70470000D4
:10163000F0B540F2FF7581EA030C0CF0004C15EA9E
:1016400011541DBF15EA1357AC42AF42E5E0BC414F
:10165000C1F31301C3F31303801A994143F48013B8
:1016600004D2641E4000494180185941C90241EA30
:101670005051B1FBF3F603FB1611A2FB0675D7EB35
:10168000C020A94102D2761E80185941C90241EA00
:101690005051B1FBF3FE03FB1E11A2FB0E75D7EBFD
:1016A000C020A94103D2AEF1010E80185941890230
:1016B00041EA9051760546EA8E2EB1FBF3F603FB24
:1016C0001611A2FB0675D7EB8020A94102D2761E27
:1016D00080185941C90241EA50514EEA060EB1FB49
:1016E000F3F603FB1611A2FB0675D7EBC020A94148
:1016F00002D2761E80185941C90241EA5051B1FB0D
:10170000F3F703FB1711A2FB0735D3EBC020A94168
:1017100067F100070CBF004247F0010766F3D527C9
:101720004FEA1E31B80814F5806412DDBD0775F16B
:10173000004250EB0E5051EB045111F5801F5CBF7D
:1017400041EA0C01F0BD4CF07F6141F0E041002026
:10175000F0BDBD076D0840EA0E5041F48011D4F190
:101760000104B4F120060ADAC4F120060200E040C8
:1017700001FA06F3E1401843B24015430EE0342C61
:1017800013DCC6F1200445EA40056D0820FA06F294
:10179000154321FA06F0A1400D43002175F10042E6
:1017A00050F1000051EB0C01F0BD00205FEA0C018C
:1017B000F0BDCFB992185B41B3FA83F704BFB2FA18
:1017C00082F6BF190B3FB7F120062FBF02FA06F3CE
:1017D000BB40C7F1200622FA06F638BF3343BA40B1
:1017E0001CB1E419641E33E77F4231F00041B1FAC5
:1017F00081F404BFB0FA80F6A4190B3CB4F12006C2
:101800002FBF00FA06F1A140C4F1200620FA06F627
:1018100038BF3143A0403C1B1AE7AC421ABF05EA6F
:101820001357AF4212E050EA41061CBF52EA43068A
:10183000BFE750EA4107304661461CBF41EA055107
:10184000F0BD52EA430C08BFC143F0BD00204FF485
:10185000001616EB410F98BF16EB430F08BF16EBAF
:10186000410F24BFC14305E016EB430F0CBF614697
:101870004CEA0551F0BD0000400D491840EA8120B6
:101880000CD2490DA1F58061491C40F0004005DBF8
:10189000D1F11F0154BFC840C017704700207047E6
:1018A000014648B1B0FA80F18840C91CC1F5846195
:1018B000090501EBD021400570470000B0B581EA71
:1018C000030C0CF0004C40F2FF7515EA11541DBFDB
:1018D00015EA1357AC42AF4239E0E41923EA455305
:1018E00043F48013C90241F0004141EA505EC7024F
:1018F0001100A7FB020200284FF00000EEFB0120C0
:101900004FF00001E3FB072118BF42F0010240182D
:1019100000214941E3FB0E01A4F580640F0302D2CC
:1019200052004041494154F101046CDD470872F115
:10193000004250F1000051EB0451A1F580115CBF51
:1019400041EA0C01B0BD4CEA05510020B0BD05EAEA
:101950001357AC4214BFAF4241E050EA410E1CBFE6
:1019600052EA430E02E061460020B0BD24423C44EE
:101970001BD15FEA070EF6D0090302BF0146002023
:10198000AEF1140EB1FA81F7AEEB070401FA07FECF
:101990000C37C7F1200100FA07F7C8404EEA000EE5
:1019A00023EA455343F48013A2E733F00043B3FA2C
:1019B00083F704BFB2FA82FE77440B3FE41BB7F112
:1019C000200E2FBF02FA0EF3BB40C7F1200E22FA01
:1019D0000EFE38BF43EA0E03BA40641C82E750EAA9
:1019E000410E14BF52EA430E6FF000014FF400178E
:1019F00017EB430F8ABF194617EB410FB5E74CEAC7
:101A000005510020B0BDD4F10104B4F120070FDA74
:101A1000C4F12007520828BF42F0010210FA07F56E
:101A200001FA07F7E1BF2A43E0403843E1400FE005
:101A3000352C98DCC7F1200452EA400220FA07F264
:101A400018BF42F0010231FA07F0A1400A43002119
:101A500072F1004250F1000051EB0C01B0BD0000EA
:101A60000048704710000020D3BBD9B1B2F5803FC9
:101A70005BD2022A1ED98C46B1FBF2F102FB11C3E4
:101A80001B0443EA1043B3FBF2FC02FB1C3380B29D
:101A900040EA0343B3FBF2F002FB103240EA0C4091
:101AA00000237047022A05D98446B0FBF2F002FBFE
:101AB00010C270474AB105D100F0010249085FEA3F
:101AC0003000704700220023704700F009B90B0076
:101AD0000200002100207047F7D300220023704746
:101AE000904271EB030CF2D370B5B1FA81F4B3FA02
:101AF00083F52C1BA340C4F1200532FA05F63343CD
:101B0000A2405FF00046E64002E05B085FEA320276
:101B1000841A71EB030524BF204629467641F4D38D
:101B200002000B003000002170BD70B5B1FA81F4E5
:101B3000B2FA82F5C4F120046419B4F12006DAD3B4
:101B4000B2405FF00044F440002502E052085FEA32
:101B50003303C61A71EB020E24BF3046714664414E
:101B60006D41F3D302000B002000290070BD01205D
:101B700000F0B8B8841A71EB030604D26E40001B63
:101B8000B141121973414FF4001C1CEB410F34BFDB
:101B90007CEB430683E00C0DA4EB1356362E00F3CA
:101BA0007C80012E45EAC32341DC43EA525312BF35
:101BB000D20292025B08240545EAC12141EA505154
:101BC000D2EBC020994125D407D1B0FA80F610FAA3
:101BD00006F162D00020203608E0B1FA81F6B1406B
:101BE000C6F1200220FA02F21143B0404FEAF47429
:101BF000B4EB465434F001064FEA74040AD8D6F523
:101C00000016760D04F00044F04061FA06F25040F0
:101C1000F1404840C00A40EA415021F0004128BF4D
:101C20005FEA500550F1000044EBD12135E0DB0ABA
:101C300045EAC121C90AB6F120050EDD42EA024299
:101C4000120CC5F1200603FA06F6EB4042EA06053F
:101C50006D42984161F100010DE062FA06F5F24033
:101C6000554063FA06FC82EA0C02F3405A406D428A
:101C7000904161EB030111F4801F05D1641E6205E0
:101C800002D06D004041494121F48011430875F1B3
:101C9000004350F1000041EB045170BC70471CEB55
:101CA000410F15D223F0004352EA43060BD04FEA0E
:101CB0004C0CBCEB410F04D80C0D661E342EB7DD66
:101CC000EBE7801A994150EA410608BF0021E4E79A
:101CD00008BF1CEB430F28BF6FF00001DDE70000D9
:101CE0007047000080B5AFF30080024A1100182051
:101CF000ABBEFBE72600020038B5040001D101208D
:101D000032BD04F18405686808B900F017F800F0E6
:101D10001AF808B100F031F800F02CF8012804D0CE
:101D200000F004F821F02A0116E032BD2068416875
:101D300021F490414160206881687047002129703A
:101D4000204600F051BF24206860206801684908DF
:101D500049000160A06A7047816000F004F8BDE8A6
:101D6000324000F092BB2068016841F0010101603F
:101D700020467047204600F0EFB9204600F022BB15
:101D80002DE9F843054605F154060C46706B2028F2
:101D9000174699463ED10CB1380001D101203AE0F6
:101DA0000020F0632121716300F074FF37808046CA
:101DB0007780A868B0F5805F04BF286900281ABF43
:101DC000204600272746044611E00022802100F02B
:101DD00024F8D8B92868002C12BF14F8011B37F872
:101DE000021BC1F3080181627088411E7180434665
:101DF0007088CDF800900028E7D10022402100F043
:101E00000CF818B920207063002004E020207063D3
:101E1000032000E00220BDE8F283284600F087BBE3
:101E200038B50346D3F88C0020280AD109B1100038
:101E300001D1012032BD00F006F8BDE8384000F0C5
:101E4000B8BB022032BD0020D866DFF8084318680E
:101E5000A0420CD04068040209D5186850E8004F31
:101E6000054644F0806445E800400028F5D1184656
:101E70007047F8B5054640F60F002E68F1693268E4
:101E8000B368084005F15C040ED1880602D59706B8
:101E900002D4D80040F18180A169002900F02F818F
:101EA0002846BDE8F4400847DFF87008034204BF45
:101EB000DFF86C783A4270D0CF0707D5D70505D543
:101EC00001273762666B46F0010666638E0708D508
:101ED000DF0706D52F6802263E62666B46F00406D1
:101EE00066634E0708D5DF0706D52F6804263E62D5
:101EF000666B46F0020666630E070AD5970601D4A4
:101F0000034206D02E6808203062606B40F0080063
:101F10006063080509D5560107D52F684FF40060A6
:101F20003862606B40F020006063606B002833D043
:101F3000880607D5910601D4D80003D5A16909B157
:101F400028468847606B29688A68510602D410F0D9
:101F5000280F1CD000F0DBF828688168480611D5EE
:101F600000F0D8F8FCD1606A60B10FF2D5718163DE
:101F7000606A00F0C9FE00280ED0606A816BBDE87F
:101F8000F44008472846BDE8F24000F0F6BE284677
:101F900000F0F3FE00206063F1BD2069012870D1DC
:101FA000C8066ED5D7066CD51020306229688868BF
:101FB00041062ED5616A0868406880B20028EBD0DF
:101FC00022889042E8DA6080086801688A061AD49C
:101FD00000F0AEF821F4807100F094F8F8D100F030
:101FE00099FAFCD100F0A9F8FCD12020206300214F
:101FF000216100F09DF821F0100100F083F8F8D184
:10200000606A00F04DFE0220606121886088091A34
:1020100031E0228861886088511A00281CBF88B28C
:1020200000286CD0286850E8002F034622F49072F4
:1020300043E800200028F5D1286800F1080200F1EB
:10204000080652E8002FDFF87803024046E8002037
:102050000028F1D12020206300222261A2612A6899
:1020600052E8002F2B6822F0100243E800200028DD
:10207000F5D1022060612846BDE8F44089B200F045
:102080007DBEC80209D55F0207D54FF480103062CB
:102090002846BDE8F24000F0EFBE080609D5160656
:1020A00001D4180205D5E16949B32846BDE8F440DA
:1020B0000847480611D553060FD500F039F821F02E
:1020C000400100F01FF8F8D12020E0620021E1611A
:1020D0002846BDE8F24000F0D0BE080206D5530005
:1020E00004D52846BDE8F24000F0C8BEC80148BF8C
:1020F000002A04D52846BDE8F24000F0C0BEF1BD7C
:1021000021F4F07142E8001000287047016228466F
:1021100000F0DABA296801F1080252E8001F2868C5
:1021200000F1080321F0400143E800100028704747
:10213000286850E8001F02467047286800F108012F
:1021400051E8001F00F1080321F0400143E80010AE
:102150000028704700800040F8B50446DFF83807D3
:102160002268DFF8E8E71368A168DFF8E477034046
:1021700020690B4361690343E0690B430343136028
:1021800000255168E06821F4405101435160A36982
:10219000DFF8C0178A421CBF206A03439668DFF845
:1021A000B8070640334393600FF2A456D36A606ABF
:1021B0001B0940EA0313D3627245DFF8A0074FF40E
:1021C00000433ED13F6807F00307032F47D8DFE8FD
:1021D00007F00289789D4FF0010CE169B1F5004FDD
:1021E0004FF6F07740F0B480BCF1000F0FD0BCF197
:1021F000010F00F0A580BCF1020F0CD0BCF1040F60
:1022000000F0A180BCF1080F00F0A080CDE001F04B
:1022100018F9002814D0626A616836F81230B0FBF1
:10222000F3F04A0802EB4002B2FBF1F0A0F110011A
:10223000B942EBD20740C0F3420007432068C760B1
:10224000B4E0DFF8C4C762452CD13F6817F00C0733
:102250005AD0042F46D0082F33D00C2F56D04FF031
:10226000100C8A42B9D1BCF1000F09D0BCF1020FA9
:102270000AD0BCF1040F4CD0BCF1080F4CD094E054
:1022800001F0DFF80028DBD0616A36F81120B0FBDE
:10229000F2F6626802EB42018E4202D31303B342AC
:1022A0003CD282E0DFF8FCC762450DD13F6817F0F1
:1022B000300729D0102F15D0202F02D0302F25D055
:1022C000CDE74FF0020CCCE7DFF8DCC762450CD15C
:1022D0003F6817F0C00717D0402F03D0802FF0D0F1
:1022E000C02FECE74FF0040CBBE78A42B7D13F6840
:1022F00017F4406708D0B7F5806FF3D0B7F5006FDB
:10230000DFD0B7F5406FDAE7AC46AAE74FF0080C2C
:10231000A7E701F067F8B5E71846B5E750080021D0
:1023200010EB062051EB16610023FFF79DFBA0F593
:102330004076DFF80878BE4237D22168C86035E0C1
:1023400001F087F865E701F04DF862E7184662E7AB
:10235000BCF1000F0CD0BCF1010F1ED0BCF1020F7C
:1023600009D0BCF1040F1BD0BCF1080F1BD01CE03E
:1023700001F067F8D0B1626A36F812306168B0FBDC
:10238000F3F000EB5100B0FBF1F0A0F11001B94205
:102390000BD2226880B2D06008E001F05AF8E9E779
:1023A00001F020F8E6E71846E5E7012504F16800AA
:1023B0000121002341800180C36003612846F2BDF2
:1023C000FEFFFFEF90F828100A0706D50268536851
:1023D000816B23F400430B43536090F82810CA0725
:1023E00006D502685368C16A23F400330B43536077
:1023F00090F828108A0706D502685368016B23F409
:1024000080330B43536090F828104A0706D50268C2
:102410005368416B23F480230B43536090F82810DA
:10242000CA0606D502689368C16B23F480530B4338
:10243000936090F828108A0606D502689368016CAC
:1024400023F400530B43936090F828104A0610D5EC
:1024500002685368416C23F480130B435360436C50
:10246000B3F5801F05D15368816C23F4C0030B437F
:10247000536090F828100A0606D501684A68C06CB7
:1024800022F4002202434A607047F8B5054605F180
:1024900084040020E0606FF07E4700F0FBFB0646FE
:1024A000286801680A0711D50097334600224FF4C7
:1024B0000011FFF7B2FC48B1FFF73AFE21F08001AE
:1024C000FFF720FEF8D12020606017E0286801683F
:1024D0004A0717D50097334600224FF48001FFF7D3
:1024E0009CFC78B1FFF724FE21F49071FFF70AFEFF
:1024F000F8D100F00FF8FCD12020A060002121705D
:102500000320F2BD20206060A0600020E8662867FC
:102510002070F2BD286800F1080151E8001F490849
:1025200000F10803490043E80010002870472DE936
:10253000F041069C05460E4690461F462868C16934
:102540003140B1420CBF0120002040452FD114F191
:10255000010FF3D000F09EFBC01B844200D314B9DE
:102560000320BDE8F081286801684A07E6D5802E7F
:1025700018BF402EE2D0C1690A070DD4C1690A050F
:10258000DCD54FF40061FFF7C1FD05F18400202187
:10259000C16000220270E3E70821FFF7B7FD05F1F3
:1025A00084000821C160002202700120D9E70020C8
:1025B000D7E750B5034600209965FF2403F15C017D
:1025C0000A804A8088619868B0F5805F04D11869F4
:1025D00090B940F2FF140FE018B9186960B17F207C
:1025E00007E0B0F1805F06D1186908B97F2403E0E5
:1025F0003F20888001E000248C8000204863222452
:102600000C63186800F1080454E8004F00F1080654
:1026100044F0010446E800400028F2D18868B0F197
:10262000005F25D18889824222D39A68B2F5805F03
:1026300004BF1869002803D10FF231328A610DE01E
:102640000FF26D248C61186940B1196851E8001FC0
:102650001A6841F48071FFF755FDF6D100F02CF8AF
:1026600041F0805144E800100028F7D1002050BD0F
:102670009868B0F5805F04BF186900280CD10FF28C
:1026800039128A61186850E8001F024641F02001A3
:10269000FFF738FDF6D1E9E70FF2CD028A6118693C
:1026A0000028EFD0196851E8001F1A6841F49071B2
:1026B000FFF728FDF6D1D9E7186800F1080151E8C5
:1026C000001F00F10804704710B500F00EF8FCD1AF
:1026D00000F015F8FCD1C16E00F024F82021C0F8FC
:1026E0008C100022C266426710BD016851E8002FBD
:1026F0000B4622F4907243E80021002970470168DC
:1027000001F1080201F1080452E8002FDFF830144B
:102710000A4044E800210029704700000100001031
:1027200020010004012909D1026852E8002F036842
:1027300022F0100243E800210029F5D17047000083
:10274000806A00F1560100220A810A8000F015BB60
:10275000010002000400060008000A000C0010003E
:10276000200040008000000138B500F04DF81ED177
:102770004B6A9188846D0B402370816D4B1C00F077
:1027800049F818D100F04DF800F060F8FCD100F0E5
:102790006AF80BD10023136100F04EF8FCD10168F8
:1027A000CB69DC0644BF10230B6277E07BE08869CD
:1027B00040F00800886131BD38B500F025F81ED121
:1027C0004B6A9188846D0B402380816D8B1C00F0D7
:1027D00021F818D100F025F800F038F8FCD100F00D
:1027E00042F80BD10023136100F026F8FCD10168F8
:1027F000CB69DC0644BF10230B624FE053E08869CD
:1028000040F00800886131BD00F15C020168136B83
:10281000222B7047836551884B1E538051880029B5
:102820007047036853E8003F046823F4907344E85A
:1028300000310029F5D17047016851E8003F0C468E
:1028400023F0100344E8003100297047016801F1CA
:10285000080353E8003F5B0801F108055B0045E809
:1028600000310029704720211163002393615361D7
:102870000168384B99420CD049680B0209D50168B0
:1028800051E8003F0C4623F0806344E80031002902
:10289000F5D1116901297047F369FFCF1188BDE8AF
:1028A000344000F06BBABDE8324000F0FBBD0000E0
:1028B0002DE9F84300F0B0F843D1A08978B96088D9
:1028C000002840D0A18988423DDA00F0EFF89D4809
:1028D000A06100F0CFF836E0304600F0E3FDA80636
:1028E000EDD500F093F80870B06D421C00F0F4F8DC
:1028F00012D0E90748BF5FEAC95200F09AF803D541
:10290000F90701D500F0E0F800F09CF820B130465E
:1029100000F033FA0020606360880028DFD100F007
:102920009EF800F0B2F8FCD100F0EFF8D4D100F03E
:10293000DCF844BF102101622188304600F01EFA05
:10294000CDE700F00DF8BDE8F1830000003801404C
:102950008810024000800040FFF4FF110024F400C2
:10296000816941F008018161704700002DE9F84359
:1029700000F052F843D1A08978B96088002840D08F
:10298000A18988423DDA00F091F86F48A06100F01B
:1029900071F836E0304600F085FDA806EDD500F070
:1029A00035F80880B06D821C00F096F812D0E90767
:1029B00048BF5FEAC95200F03CF803D5F90701D5DA
:1029C00000F082F800F03EF820B1304600F0D5F972
:1029D0000020606360880028DFD100F040F800F03C
:1029E00054F8FCD100F091F8D4D100F07EF844BF47
:1029F000102101622188304600F0C0F9CDE7FFF7D1
:102A0000AFFFBDE8F1830000004400403168486A30
:102A1000B16D08EA00007047064606F15C043068B4
:102A2000B4F80480C569D0F800908768216B22292A
:102A3000704705D501210162606B40F001006063C1
:102A4000A8077047680708D5F90706D5326804203B
:102A50001062606B40F002006063606B7047316829
:102A600051E8001F326821F4807142E8001000280C
:102A7000F5D17047316851E8001F326841F02001FC
:102A800042E800100028F5D17047306800F10801D5
:102A900000F1080351E8001F2948014043E80010F5
:102AA0000028704700480040004C0040306800F1AA
:102AB000080252E8001F00F1080821F0805148E8A0
:102AC00000100028F2D17047326802201062606B5B
:102AD00040F0040060637047B2656088411E618009
:102AE0003068C56915F0070F704700212161306813
:102AF00050E8001F024621F0100142E800100028B3
:102B0000F5D13068C169CA067047202020630021D2
:102B1000A161616130680D4988420CD040680102B2
:102B200009D5306850E8001F024621F0806142E874
:102B300000100028F5D120690128704700FD0F0022
:102B4000FEFFFFEF69270008B9270008008000405A
:102B5000E0B508220021684600F0CAFD002100917E
:102B60000191684600F0CEFD00F002FE4448816805
:102B700041F001018160816801F001010291029937
:102B8000026842F080520260006800F080500290BB
:102B9000029800F03EFE07BD10B586B000F069F85F
:102BA0002168384881421DD13748C16841F48041CD
:102BB000C160C16801F4804100910099026842F04F
:102BC000020202604FF46041006800F002000090D1
:102BD000022200982D4800F046F80521059101A930
:102BE00000F028FE06B010BD18B597B000F041F80F
:102BF0004422002106A800F07BFD20682449884279
:102C00002FD1022200210692089106A800F0FCFEB6
:102C100008B100F06BFD1C48C16841F40031C1608F
:102C2000C16801F4003100910099026842F001028C
:102C300002600C21006800F0010000900222009860
:102C400000F011F84FF090400721059101A900F024
:102C5000F1FD00220021262001F004F8262001F0D9
:102C60001FF818B010BD0191029200210391049148
:102C7000704704461422002101A800F039BD00006D
:102C800058100240003800404C1002400004004838
:102C90000044004001480068704700BF0000002069
:102CA00010B500F1240200215378022B03D0042038
:102CB0009061012122E003681C6824F00E041C606E
:102CC000536A1C6824F480741C60006803685B0805
:102CD0005B000360012092F82030D46903F01F03E9
:102CE00098406060936AD06A5860106B30B1036896
:102CF00023F480730360536B906B58600120507015
:102D000000231370084610BD38B500F124020024DA
:102D10005178022906D0042090610121517014706D
:102D2000012428E001680B6823F00E030B600168A2
:102D30000D686D086D000D60516A0B6823F4807397
:102D40000B60012192F82030D56903F01F039940F0
:102D50006960936AD16A5960116B31B10B6823F4D1
:102D600080730B60536B916B59600121517014702B
:102D7000516901B18847204632BD70477047000055
:102D800010B500F184010A78012A01D1022010BD9A
:102D900001220A7024234B600268136814686408D7
:102DA000640014600022426623F000530068036050
:102DB00020224A6000230B70002010BD70B500F087
:102DC0001FF801D1022070BD00F020F822F060420F
:102DD00009E070B500F014F801D1022070BD00F0D8
:102DE00015F822F0606211438160204600F01CF863
:102DF000206806602021696000222A70002070BDD2
:102E0000044604F1840528780128704701202870C1
:102E100024226A6020680668026852085200026034
:102E2000206882687047000030B5416E11B90121F9
:102E3000012214E0016800BF0BA48A68D1F80810D1
:102E40000BA3520E02F00702490F655CA45C595CAB
:102E50009A5CED00E40095FBF1F194FBF2F268302E
:102E60004180028030BD0000010101030701000024
:102E70000804020408010101704770477047704759
:102E80002DE9F84304006DD02078DFF8E065C10734
:102E900017D500F0CBF90CD101F0030103290AD0BA
:102EA0006068B0F5803F2AD1306840F480303060EF
:102EB00037E00828F4D13068810302D56068002823
:102EC00050D02178880759D500F0B0F943D101F0EE
:102ED0000301022941D0E06800286AD0316841F43A
:102EE00080713160FFF7D6FE0546306841055DD43C
:102EF000FFF7D0FE401B0328F7D303205FE1B0F5B6
:102F0000A02F306806D140F480203060316841F451
:102F1000803105E020F480303060316821F4802178
:102F20003160606858B1FFF7B5FE0546306881032F
:102F3000C7D4FFF7AFFE401B6528F7D3DDE7FFF7E7
:102F4000A9FE054630688103BBD5FFF7A3FE401BF1
:102F50006528F7D3D1E70428BDD13068410503D5F2
:102F6000E068002800F0588100F058F9DFF8080503
:102F7000006800F0C1FE002840F04E812078DFF8A4
:102F8000FC74010734D560690028786821D040F0CE
:102F900001007860FFF77EFE05467868810727D438
:102FA000FFF778FE401B0328F7D3A6E700F036F9B9
:102FB000E4E7306820F480703060FFF76BFE054670
:102FC00030684105DAD5FFF765FE401B0328F7D3CB
:102FD00093E7400840007860FFF75CFE054678689C
:102FE000810705D5FFF756FE401B0328F7D384E77A
:102FF0002078410763D5B06D0025C10009D4B06DBC
:1030000040F08050B0650125B06D00F08050009018
:103010000098DFF86C84D8F80000C10513D4D8F804
:10302000000040F48070C8F80000FFF733FE8146CE
:10303000D8F80000C10506D4FFF72CFEA0EB09006C
:103040000328F5D359E7A068012804D1386840F077
:103050000100386010E00528386806D140F004000F
:103060003860396841F0010105E0400840003860EF
:10307000396821F004013960A06841F2893860B1F3
:10308000FFF708FE81463868810713D4FFF702FE78
:10309000A0EB09004045F6D32FE7FFF7FBFD814683
:1030A0003868810706D5FFF7F5FDA0EB090040451C
:1030B000F6D322E71DB1B06D20F08050B0652078C6
:1030C000810621D5A0690028B8680ED040F0010023
:1030D000B860FFF7DFFD0546B868810714D4FFF735
:1030E000D9FD401B0328F7D307E740084000B8602C
:1030F000FFF7D0FD0546B868810705D5FFF7CAFD83
:10310000401B0328F7D3F8E6E069002856D0B168E1
:1031100001F00C010C2954D00228306820F0807096
:1031200030603AD1FFF7B6FD05463068810105D51C
:10313000FFF7B0FD401B0328F7D3DEE6F068DFF8A9
:103140004413226A0840616A1043491E40EA011094
:10315000226BA16A520840EA0120616B521E4908A5
:1031600040EA4250491E40EA4160E16A40EAC160DB
:10317000F060306840F080703060F16841F080713C
:10318000F160FFF787FD04463068810116D4FFF730
:1031900081FD001B0328F7D3AFE6FFF77BFD044654
:1031A0003068810105D5FFF775FD001B0328F7D3B3
:1031B000A3E6F068DFF8D0120840F0600020BDE818
:1031C000F283012828D0F068226A00F003019142BE
:1031D00001BF00F0F001626A521EB1EB021F1BD169
:1031E000A26A00F4FE41B1EB022F02BF00F0784169
:1031F000E26AB1EBC26F0FD1226B520800F4C0013A
:10320000521EB1EB425F07D1616B490800F0C0600C
:10321000491EB0EB416FD1D00120D0E77068216921
:1032200020F0FE4040EA016070607047B068F168CD
:1032300000F00C000C2870472DE9F04704460026EA
:10324000002C6CD0DFF844723868894600F00F001B
:10325000484506D200F0C0F8386800F00F00484535
:103260005DD12168DFF80452C80741F2893858D58A
:103270006068DFF81CA2032827D1286882014ED598
:10328000EA68E868C0F30310401C02F00302032A56
:103290000CBFDFF80022DFF8DC21B2FBF0F2E868B7
:1032A000C0F306204243E868C0F34160401C400080
:1032B000B2FBF0F0504518D3AA6812F0F00F0DD011
:1032C000890712D5A06880B908E00228286824D1AF
:1032D000810324D500F086F8504506D3A86820F075
:1032E000F00040F08000A8608026A9686068890826
:1032F00040EA8101A960FFF7CDFC8246A8686168B9
:1033000000F00C00B0EB810F0BD0FFF7C3FCA0EB7B
:103310000A004045F2D303205CE04105DAD40120E5
:1033200058E02068810715D5400703D5A96841F406
:10333000E061A9602078010705D5A86820F46050F5
:1033400040F4E060A860A968A06821F0F0010143A2
:10335000A96005E0802E03D1A86820F0F000A860E5
:10336000386800F00F0081450FD200F035F8FFF704
:1033700091FC0646386800F00F00484505D0FFF77D
:1033800089FC801B4045F5D3C5E72078410705D56A
:10339000AA68E06822F4E0620243AA602178080784
:1033A00006D5A968206921F4605141EAC001A960ED
:1033B00000F018F8AA683849C2F30312895C2C4A55
:1033C00001F01F01C8401060BDE8F0472A480068BE
:1033D00000F092BCBDE8F0873968090949EA01119B
:1033E000396070472D49086800F00C00042801D1AD
:1033F00020487047086800F00C00082801D12548D3
:103400007047086800F00C000C2818D14A6848681A
:10341000C0F30310401C02F00302032A0CBF1D4A34
:10342000144AB2FBF0F24868C0F3062042434868F1
:10343000C0F34160401C4000B2FBF0F07047002038
:1034400070470B48154A006813681549C3F30222F8
:1034500006E00748114A006813681149C3F3C22205
:10346000895C01F01F01C840704700000010024055
:103470000C0000200024F400040000209010024002
:10348000007000400C809F01FCFFEEFE0020024017
:1034900001B4C40400127A008859000808100240E0
:1034A000E859000810B56F4C6F496068884210D128
:1034B0002278612A06D16423042204F19801201D98
:1034C000FEF75EFC2146201DBDE810400122FEF7FC
:1034D000A7BC10BD70B586B000F030FC00F0D8F885
:1034E0001421684600F03AFC6048614C0168614D67
:1034F00041F004010160026802F00402059205999E
:10350000026842F001020260036803F001030593C0
:103510000599026842F0020202600022006800F091
:103520000200059022210598204600F057FA00225B
:103530004FF48051284600F051FA00224FF4044124
:103540004FF0904000F04AFA222100F099F820460E
:1035500000F070F94FF4805100F092F8284600F026
:1035600069F94FF4044100F08BF84FF0904000F0FF
:1035700061F9414D414828604FF482714FF4E06099
:10358000E860696010200221E861296107204FF49A
:103590000071E862A961082000224FF400516863BD
:1035A000AA606A612A626A62A9622A63284600F0F8
:1035B000D9FB08B100F09AF82A4E2B4870604FF4FE
:1035C000E131B1600020F060306170610C21F06188
:1035D00030627062B062F062B161301DFEF78CFB48
:1035E00008B100F083F80021301DFFF7E7FB08B1B8
:1035F00000F07CF80021301DFFF7EBFB08B100F074
:1036000075F8301DFFF7BCFB08B100F06FF8002221
:103610002021204600F0E2F900220221204600F09D
:10362000DDF900F045FE05F1680000F08EFF012293
:103630003146301DFEF7F4FB09A400F0C6FE00F091
:10364000D7FE00F07DFE05F1680000F0BDFFB5F982
:103650006820214606F1980001F07CF8EDE70000B3
:103660002564000084070020004400404C10024004
:103670000008004800040048A8040020003800406A
:103680000091012200210291039101926946704745
:1036900000B593B0382105A800F060FB14216846FE
:1036A00000F05CFB4FF4007000F06CF802214FF466
:1036B0008072059108924021002209910C9205A880
:1036C000FFF7DEFB08B172B6FEE7012101910F2082
:1036D0000090002200210292039104926846FFF7B5
:1036E000ABFD08B172B6FEE713B000BD72B6FEE7DF
:1036F00010B5044610460A460146204601F04AF835
:10370000204610BD1D4A1368016823F00E030B43C9
:103710001B4913604A6822F480324A600B6823F424
:1037200080330B60CA6822F48032CA608A6822F44F
:1037300080328A604268D30303D50A6842F480323B
:103740000A604268930303D54A6842F480324A60B3
:103750000279D30703D58A6842F480328A600079FF
:10376000820703D5C86840F48030C86000207047E5
:103770000248016841F00101016070470470004097
:103780000004014010B53222DFF89C30DFF894408D
:10379000DFF88C1048B900F01EF820F4807020602B
:1037A00017D100F01FF80CD413E0B0F5007F0AD158
:1037B00000F011F840F4807020600AD100F012F897
:1037C00007D5032010BD0A6822F4C06242F480626B
:1037D0000A60002010BD086800F4C060B0F5806F7A
:1037E000206870470C6824F4C06444F400740C60D2
:1037F0001868DFF838304243B2FBF3F0401C00E0B9
:10380000401E4A69530501D50028F9D14869410590
:1038100070470748016841F480410160704700002B
:1038200000700040807000400C00002040420F00FB
:10383000087000402DE9F84F00276B4A6B4B4FF0A2
:103840000F0805460E4634E0694CA54214BF062415
:1038500005248C40674944EA0E0441F82C40C143DA
:10386000946801EA040C7468E40248BF40EA0C0C56
:10387000C2F808C0D46801EA040C7468A40248BF06
:1038800040EA0C0CC2F80CC0546801EA040C7468DD
:10389000A40348BF40EA0C0CC2F804C0146801EA53
:1038A000040C7168C90348BF40EA0C0CC2F800C0A0
:1038B0007F1C316831FA07F000F08E800124BC4093
:1038C00014EA0100F4D04FEA470C032101FA0CF18D
:1038D0006FEA010E716801F00309B9F1010F1CBF15
:1038E00001F00301022912D1A968D6F80C900EEA62
:1038F000010109FA0CF949EA0101A960696821EAA4
:1039000004047168C1F30011B9400C436C60B90044
:10391000347904F00304032C21D0EC68D6F8089025
:103920000EEA040409FA0CF949EA0404EC6034795B
:1039300004F00304022C12D1FC0805EB840401F00E
:103940001C09D4F820A008FA09FB2AEA0B0AD6F8C9
:1039500010B00BFA09F949EA0A09C4F820902C685A
:103960000EEA040E347904F0030404FA0CF444EA79
:103970000E042C60746814F4403F99D01C6844F025
:1039800001041C604FEA970C1C6804F001040094C9
:1039900001F00C01009C174C54F82C4008FA01FE71
:1039A00024EA0E0EB5F1904F08BF002413D0124C3C
:1039B000A54208BF01240ED0104CA54208BF022426
:1039C00009D00F4CA54208BF032404D00D4CA542DA
:1039D0007FF43AAF04243CE7BDE8F18F0AB181617E
:1039E000704781627047000000040140601002408F
:1039F0000014004808000140000400480008004886
:103A0000000C0048001000482DE9F84305464FF02F
:103A100000082868DFF80C62010353D5F06C00241D
:103A2000C10009D4F06C40F08050F0640124F06CC7
:103A300000F0805000900098DFF8EC71386840F496
:103A400080703860FFF726F981463868C10508D4D0
:103A5000FFF720F9A0EB09000328F6D34FF0030885
:103A60002BE0DFF8C871386810F440701CBF296C77
:103A700088420BD03868396841F48031396020F4CD
:103A800040703A6822F480323A603860C0070ED540
:103A9000FFF700F981463868810708D4FFF7FAF884
:103AA000A0EB090041F289318842F4D3D6E73A68A5
:103AB000286C22F4407202433A601CB1F06C20F092
:103AC0008050F0642878C10705D5F26F68689208C5
:103AD00040EA8202F2672978880705D5F16FA86865
:103AE00021F00C010143F1672978480705D5F16FF2
:103AF000E86821F030010143F1672978080705D50E
:103B0000F16F286921F0C0010143F1672978880627
:103B100005D5F16F686921F440610143F1672978A7
:103B2000480605D5F16FA86921F440510143F167BA
:103B30002978080605D5F16FE86921F44041014371
:103B4000F1672968C80505D5F16F286A21F440316D
:103B50000143F1672968880505D5F16F686A21F48A
:103B600040210143F167296848050AD5F16FA86A29
:103B700021F440110143F167A96AB1F5801F00F0FB
:103B80004AF8296808050AD5F16FE86A21F440016E
:103B90000143F167E96AB1F5800F00F03CF829684C
:103BA000C8040AD5F16F286B21F040710143F16719
:103BB000296BB1F1807F00F02EF82968880408D5C0
:103BC000F16F686B21F040610143F167696B00F0B0
:103BD00020F82968480408D5F16FA86B21F04061EE
:103BE0000143F167A96B00F014F8296808040DD5AA
:103BF000F16FE86B21F040510143F167E96BB1F1DE
:103C0000805F03D1306840F4803030604046BDE8CA
:103C1000F283B1F1006F03D1306840F4801030605E
:103C2000704700000C1002400070004090100240ED
:103C30000901020002D42A4881547047294B02F03E
:103C40000F021A4402F8041C7047274B19684FF6FC
:103C5000FF020002114000F4E060084323490843DA
:103C60001860704770B5204B1C68C4F30223012410
:103C7000C3F10705052D2EBF0F2504FA05F56D1EAE
:103C80001E1D072E34BF0023DB1E2940994004FA75
:103C900003F3BDE870405B1E1A401143C8E7000003
:103CA000010007D4012200F01F01114B8A40400996
:103CB00043F82020704710B5401EB0F1807F01D33B
:103CC000012010BD0B4C60600F214FF0FF30FFF75B
:103CD000AFFF0021A16007202060002010BD000080
:103CE00000E400E018ED00E00CED00E00000FA0553
:103CF00000E100E010E000E070B50E4E0446B06850
:103D00000025A0B14FF47A710B4AB1FBF0F11068B5
:103D1000B0FBF1F0FFF7CFFF48B9102C07D200221B
:103D200021464FF0FF30FFF79DFF746000E0012552
:103D3000284670BD000000200C000020032010B5B4
:103D4000FFF783FF0F20FFF7D7FF0024002814BFE1
:103D50000124FEF7FDFE204610BD0000002200F009
:103D60004DBD000038B5040001D1012032BD606AAC
:103D700028B900F065F805D00021E16102E00020DB
:103D8000206160610020A06204F15C05687820B9C0
:103D9000002129702046FEF7FFFE0220687000F027
:103DA0005AFAE168B1F5E06F04D90020B1F5706FFF
:103DB00003D104E04FF4805001D00021A16261687A
:103DC000A268237C01F4827102F404421143227D33
:103DD00003F002031943A36902F001021143227F99
:103DE00003F40073194394F8203002F038021143B1
:103DF000A26A03F080031943236802F400521143BE
:103E00001960A16994F8242094F83430090C01F069
:103E1000040102F010021143E26803F008031943A1
:103E200002F4706211430843216848602068C16948
:103E300021F40061C161002068600121697032BD18
:103E40006068B0F5827F70472DE9F047054605F1BF
:103E500044070026387E01280C4691464FF00108A1
:103E600008BF022000F0F3809A4687F81880FEF71A
:103E700011FF7B7E012B09D06968B1F5827F02BFFB
:103E8000A9680029042B01D00226DDE0002C1CBF0C
:103E9000B9F1000FBAF1000F00F0D2807B7E042B45
:103EA0001CBF05217976FE61C5F84090A7F802A0F5
:103EB000A7F800A0AC63A5F83EA0A5F83CA0BE60A2
:103EC000FE6040F20173E968994238BFBAF1020F0F
:103ED00004D329684C6824F4805403E029684C68B2
:103EE00044F480544C6029680C68620603D40C6862
:103EF00044F040040C60EA686968089C9A4238D330
:103F0000002918BFBAF1010F00F0B0F88146E88F20
:103F1000002804BF7888002837D02968886882077D
:103F20000BD5E88F002818BFB8F1000F05D0A86B9B
:103F30000288CA60B04600F092F829688868C20713
:103F40000CD5788850B1C868296C08804FF00108FA
:103F5000286C821C2A647888411E7980FEF79AFEBC
:103F6000A0EB0900A042D2D314F1010FCFD0032659
:103F700068E0002918BFBAF1010F00F083F881460C
:103F8000E88F002804BF788800284ED02968886808
:103F9000820718D5E88F002818BFB8F1000F12D09B
:103FA000A86BEA8F022A08D30088C860A96B881C16
:103FB000A863E98F881EE88704E002780A7300F09E
:103FC00048F8E987B04629688868C20720D578880C
:103FD000F0B1286C7A88022A10D3C9680180286C55
:103FE000821C2A647888811E7980788802280DD204
:103FF0002868416841F48051416007E0097B017005
:10400000286C421C2A647888411E79804FF0010890
:10401000FEF740FEA0EB0900A04203D314F1010F0C
:10402000AED0A4E7002CABD1A1E728464A462146F2
:1040300000F017F910B120200126F861F86908B1E5
:10404000012601E001207876002139763046BDE86E
:10405000F087A86B411CA963E88F411E7047A86BCD
:10406000811CA963E88F411EE987704709D1A96BBC
:104070002B680A88DA60A96B8A1CAA63E98F4A1E3A
:10408000EA87704715D1A96B2A68EB8F022B08D3FA
:104090000988D160AA6B911CA963EA8F911EE987F8
:1040A00070470B781373A96B4A1CAA63E98F4A1EE9
:1040B000EA8770472DE9F843089C05460E4690466E
:1040C0001F46FEF7E7FD381A2418FEF7E3FD814688
:1040D000DFF8D80101684901090D6143009105E04D
:1040E000009800B900240098401E0090286881685C
:1040F0003140B1420CBF01200020404532D017F1C1
:10410000010FF3D0FEF7C6FDA0EB0900A04201D2DB
:10411000002CE5D12868416821F0E0014160686821
:10412000B0F5827F0BD1A868B0F5004F18BFB0F58D
:10413000806F04D12868016821F040010160A86AFD
:10414000B0F5005F09D12868016821F400510160D1
:104150002868026842F40052026005F15C0000F039
:104160006EF800E00020BDE8F2832DE9FC4706462A
:104170000A9D00208DF800000F4614469846FEF771
:1041800089FDA8EB00002D18FEF784FD81463068FC
:10419000DFF818110A6800F10C0A23204243120DBF
:1041A0006A43019205E0019800B900250198401E7C
:1041B0000190306881683940A1423DD0B7F5C06FA9
:1041C00008BF002C05D19AF800008DF800009DF87A
:1041D000001018F1010FECD0FEF75CFDA0EB090018
:1041E000A84201D2002DDED13068416821F0E00103
:1041F00041607068B0F5827F0BD1B068B0F5004FB8
:1042000018BFB0F5806F04D13068016821F040011B
:104210000160B06AB0F5005F09D13068016821F42F
:10422000005101603068026842F40052026006F1F9
:104230005C0000F004F800E00020BDE8F6870121F2
:104240004170002202700320704700962B46002226
:10425000802120462EE72068016821F0400101609E
:1042600070477CB50D461646044600962B46002244
:104270004FF4C051FFF779FF38B9FFF7E6FF20B9D7
:1042800000962B4600F00CF808B100F001F876BD5E
:10429000206E40F0200020660320704700906423C9
:1042A00000224FF4C06120465FE700000C000020B0
:1042B0002DE9FC4143F63807384600F0DBFA0124CB
:1042C000DFF87C64DFF87C544FF4BA7808FB04F123
:1042D000685C40B168181C216143314440301C398E
:1042E0001C22FCF7F1FF641C032CEFDB00F0AEFA9C
:1042F00000F09EFA06F13C01384600F0D4FA00279F
:1043000006EB870050F8881F02690092836840F22C
:104310005A30B1FBF0F2781CC0B200F0F6FA7F1C04
:10432000032FEDDB012608FB06F0285C18B1022103
:10433000F0B200F032FB761C032EF4DBBDE8F38113
:104340002DE9FC4100254FF000086C1C4823DFF8E4
:10435000F8036B432427034407FB08F708F1010621
:104360001F44012200F02DF83861032200F029F8E3
:104370007861042200F025F8B861012200F01DF8F0
:104380007860032200F019F8B860042200F015F8F4
:10439000F86007F120030120009007F11C02F1B240
:1043A000E0B200F074FB08F10108B8F1010FCDDDB7
:1043B0006D1C012DC7DDBDE8F381F1B2E0B200F064
:1043C000FDBAF1B2E0B200F01ABB38B50124DFF853
:1043D0007453E0B24FF4BA714843285C18B102211B
:1043E000E0B200F0D3FA641CE2B2032AF1DB31BD83
:1043F00080B5012000F0C3FA01224FF48051DFF8AC
:104400004C03FFF7EBFA01224FF400414FF09040CC
:10441000FFF7E4FABDE80240022000F0B0BA00E085
:1044200000BF002101804180C18081800181C16085
:1044300001618182704770B5B0F904208A4238BFAB
:104440008180B0F90630994201D3828A02B9C180D5
:10445000C568828A03894D19C5601446661C95FBA0
:10446000F6F5CB1A05812AB1058902694D1B13FBAC
:1044700005230361026992FBF4F224E070B50A009F
:10448000B0F9044048BF52429442B8BF8180B0F9AD
:104490000640A24201DB828A02B9C180C268048957
:1044A0008B18828AC36015466E1C93FBF6F30C1BB7
:1044B00003812AB103890269CB1A14FB0323036128
:1044C000026992FBF5F202804180838A5B1C838241
:1044D00070BD00220274C0E90022417470472DE9CA
:1044E000F04106461746327C88461AB90020C6E9D4
:1044F000000001E0022A01D101220AE0D6E90245CA
:10450000D6E90001A8EB0404E51704194D41C6E9FA
:10451000004532740021C6E90281307C8C4A40B9E2
:10452000380014BF00204FF0FF30106001243474B5
:1045300002E0D6E90001116010681BB1002F14BF22
:10454000401C401E1060BDE8F08110B50446FFF726
:1045500066FF04F13000FFF762FF04F11800FFF777
:104560005EFF04F14800FFF75AFF04F16000FFF717
:1045700056FF04F17800FFF752FF04F19000FFF7B7
:104580004FFF04F1A8000022C0E90022C0E9022286
:10459000C0E90422C0E90622002104F1D800FFF797
:1045A00098FF002104F1F000FFF793FF002104F5CC
:1045B0008470FFF78EFF002104F59070FFF789FFEC
:1045C0000020C4F8400110BDF8B5044601210120C7
:1045D00000F00FFE01462046FFF72DFF01210120CC
:1045E00000F021FE014604F13000FFF724FF012115
:1045F000012000F0EDFD014604F11800FFF71BFF5C
:10460000012000F0D3F9014604F17800FFF713FF11
:1046100004220121012000F095FB01B204F1900079
:10462000FFF72CFF00F079F804F1A805296A814210
:104630000CD100F06DF8696A814207D1D4F84001CD
:104640000328B4BF401C0020C4F8400100F065F806
:10465000286200F05DF86862012200F067F8C5E9A1
:104660000001032200F062F8C5E90201022200F015
:104670005DF8C5E90401042200F058F8C5E9060117
:1046800000F058F8A8620D2200F04CF8064600F041
:1046900051F8421ED5E900179241D20FF3B204F14E
:1046A000D800FFF71CFF0B2200F03CF806460D2255
:1046B00000F041F8421ED5E902179241D20FF3B241
:1046C00004F1F000FFF70BFF0C2200F02BF8064678
:1046D0000E2200F030F8421ED5E904179241D20FA5
:1046E000F3B204F59070FFF7FAFE0A2200F01AF810
:1046F00006460C2200F01FF8D5E90617F3B201B008
:10470000421E04F58470BDE8F0409241D20FE6E607
:1047100002220121012000F0E4BD0222012101203A
:1047200000F0BABD0121012000F046BC01210120AA
:1047300000F058BB0F220121012000F08DBB0000CA
:104740000458000848000020200800200004004809
:10475000800900200CB430B583B00A4606A9029146
:10476000044600250194009502AB01A9084878444D
:104770001E30FBF731FD019A157000284EBF04462C
:104780000198041B204603B030BC5DF80CFB00BF51
:104790005FCAFFFF62F30F2262F31F42401810F05E
:1047A000030308D0C91A1FD3DB0748BF00F8012D47
:1047B00028BF20F8022D130030B4144615461039D6
:1047C00028BF20E93C00FAD8490728BF20E90C009F
:1047D00048BF40F8042D890028BF20F8022D48BFAB
:1047E00000F8012D30BC7047C91818BF00F8012D22
:1047F000CB0728BF00F8012D7047000000B500BFAF
:10480000130096469446103928BFA0E80C50FAD8F9
:104810005FEA417C28BF0CC048BF40F8042BC907A1
:1048200028BF20F8022B48BF00F8012B00BD000074
:1048300038B50124B44D00F017F810B1E0B200F023
:1048400083F9641CE0B20328F5DB31BD38B50124DF
:10485000AD4D00F009F810B1E0B200F0D5F9641CDC
:10486000E0B20328F5DB31BDE0B24FF4BA71484342
:10487000285C704780B5A44901F5BA7200F00F03B7
:104880001370C0F30313537001F53A72030A000B5F
:1048900000F00F0003F00F0350701370084600F093
:1048A0003BF9002002BD70B50446974E14F00F0F7F
:1048B0001CBF96F8740100280D460CD02B4613221D
:1048C0000021012000F059F806F5E87313220021B9
:1048D000012000F050F800F03AF800F031F814F43C
:1048E000706F1CBF96F8E80200280CD02B461322EC
:1048F0000021022000F041F806F551731322002137
:10490000022000F038F8002070BD2DE9F843804601
:10491000089FDFF8F491B8F1010F0C4615461E46CA
:1049200009F5BC7000F019F800F011F800F008F873
:10493000B8F1010F09F53B7000F00FF8BDE8F18305
:1049400001224FF400414FF09040FFF747B8012299
:104950004FF480516D48FFF741B804D104604560C1
:10496000066147617047B8F1020F03D18460C560EA
:104970008661C761704700F0D4B800F0DBB880B53D
:104980000328B8BF00F0A9F9002002BD80B50328B4
:10499000B8BF00F056F9002002BD4FF4BA725A4B6E
:1049A0005043184480F824100020704780B5014619
:1049B000012000F053FCC004000C02BDF8B506460F
:1049C0000D4600F0BFF94FF4BA714F4B4E4300242F
:1049D0009A19012D01D1526802E0022D0DD1D26841
:1049E000C117A2FB00670A2002FB0177A0FB064566
:1049F00000FB0755240F44EA05142046F2BD2DE9BB
:104A0000F04104460D46164600F0ECF92B46142101
:104A10003F4A4B43D1183F4B51F826709F4201EB60
:104A2000860205D3B0F1C04F02D2D36B5B1C06E007
:104A3000B7F1C04F04D2984202D3D36B5B1ED3634D
:104A400041F826000021D36B461841EB03084FF4D0
:104A5000BA702D4944430819012D07D182683046A8
:104A60004146A2FB006802FB018808E0022D06D146
:104A7000046930464146A4FB006804FB01880A270C
:104A8000A7FB062307FB08331846BDE8F0812DE994
:104A9000F44F07460E461D4600F09AFB824631460B
:104AA000384600F0A6FB02464FF4BA7016490A9B3E
:104AB0004743C819012E07BF4669D0F818C0C66918
:104AC000D0F820C00A20A6FB0A89A0FB086700FBDB
:104AD0000977F60B46EA4746ACFB024B21465F4698
:104AE000A0FB014B00FB07BB640C009844EACB34ED
:104AF0001BB9C0F800A02A6003E0012B04BF0660C8
:104B00002C60BDE8F18F0000480000200004004840
:104B1000B0080020010000A0DFF81412C8620020D5
:104B200070471CB5040003D00091694600F0FDFCFD
:104B3000002016BD3EB5050004D000F0FEF800F0E0
:104B4000F4F80446E0B23EBDF8B504005BD025465B
:104B50006422DFF8E011DFF8D87112FB05F28E183D
:104B60004FF4BA70F96A454329444FF48272086CD5
:104B700030600021B1604FF4E060F06002213161EB
:104B8000012070614FF400717260B1611820F06112
:104B90000021072231627162B162F2623046FFF792
:104BA000E1F83068016841F04001016020460121D0
:104BB00000F058FD00F041F848F6B80000F0F8FBAE
:104BC000204600F0ADFB00F038F80021204600F050
:104BD00049FD642000F0ECFB0121204600F042FD7D
:104BE00044F6206000F0E4FBF86A284400F15C031E
:104BF00001220021204600F098FC20B9F86A00212B
:104C0000415528444170F1BD10B5040014D0002175
:104C100000F028FD00F011F80021204600F027FDEB
:104C200000F00BF80121204600F021FDBDE8104006
:104C30004FF47A7000F0BCBB10BD4FF47A7000F0F6
:104C4000B7BB3EB504460020220001903ED00129AA
:104C5000DFF8DC0029D039D3032901D014D337BDC4
:104C600000F035F80125416E21F40011416600F194
:104C7000640321F480014166012241F40001416690
:104C80000095042101910BE000F021F80421436E0E
:104C900043F4C003436601220191009200F16403D2
:104CA00001A9204600F0C6FB37BD204600F0F1FC0C
:104CB0000021204600F0EDFC0A2000F079FB0121E4
:104CC000204600F0E6FC0A2000F072FB37BDC16A06
:104CD0004FF4BA70424388187047F8B5040022D0E8
:104CE00025464FF4BA70DFF848604543F06A411931
:104CF000405D082801F1B0030ED12A270097212238
:104D00006946204600F011FC8422F06A0092284493
:104D100000F5B273042202E02A2000903122694695
:104D2000204600F002FCF1BD000001A900F082BBAA
:104D30002809002058060020102101910124009428
:104D40007047000070B500F014FA49D000F03AFA4C
:104D50006343521E3344062A03F58A733ED8DFE8C4
:104D600002F0040C141C242C3400012908BF18681C
:104D700032D0022932D1186B2EE0012908BF5868C1
:104D80002AD002292AD1586B26E0012908BF986849
:104D900022D0022922D1986B1EE0012908BFD868D1
:104DA0001AD002291AD1D86B16E0012908BF186958
:104DB00012D0022912D1186C0EE0012908BF5869DF
:104DC0000AD002290AD1586C06E0012908BF986967
:104DD00002D0022902D1986C20F06040000100113D
:104DE00070BD000070B50023040027D000F029F842
:104DF00000F5827022D8DFE802F0020A121A0129B7
:104E000008BF03681AD0022918D1036B16E00129E4
:104E100008BF436812D0022910D1436B0EE001296C
:104E200008BF83680AD0022908D1836B06E00129F4
:104E300008BFC36802D0022908BFC36B1846D91740
:104E400070BD044DEE6A4FF4BA746043521E304494
:104E5000032A70472809002070B500F08AF914D0A1
:104E600000F037FAB033142A0FD8DFE802F00BA4B1
:104E7000A4131D3F3751272F49A479818991596186
:104E800069719B00012901D1186870BD0229FCD10C
:104E9000586870BD012908BF186802D0022902D1E4
:104EA0005868C0F3836070BD012908BF186802D03C
:104EB000022902D15868C0F3835070BD012908BF90
:104EC000186802D0022976D1586856E1012908BF36
:104ED000186802D002296ED1586851E1012908BF33
:104EE000186802D0022966D158684CE1012908BF30
:104EF000186802D002295ED15868C0F3C33070BD73
:104F0000012908BF186802D0022954D158683DE130
:104F1000012908BF186802D002294CD1586838E12D
:104F2000012908BF186802D0022944D1586833E12A
:104F3000012908BF186802D002293CD158682EE127
:104F4000012908BF186802D0022934D1586829E124
:104F5000012908BF186802D002292CD1586824E121
:104F6000012908BF186802D0022924D158681FE11E
:104F7000012908BF186802D002291CD158681AE11B
:104F8000012908BF186802D0022914D1586815E118
:104F9000012908BF186802D002290CD15868C0F353
:104FA000001070BD012908BF186802D0022902D183
:104FB0005868C0F3803070BD70B500F0DAF814D0D6
:104FC00000F087F99C33152A0FD8DFE802F00BD1E7
:104FD0001C1326303A444E58868E98A2ACB6C0C8F0
:104FE000626C767E012901D1186870BD0229FCD15E
:104FF000586870BD012908BF186802D0022901D184
:105000005868C00F70BD012908BF186802D0022976
:1050100002D15868C0F3807070BD012908BF1868BC
:1050200002D0022902D15868C0F3407070BD012936
:1050300008BF186802D0022902D15868C0F3007076
:1050400070BD012908BF186802D0022902D1586832
:10505000C0F3C06070BD012908BF186802D00229E2
:1050600002D15868C0F3806070BD012908BF18687C
:1050700002D002297CD15868C0F3406070BD01297C
:1050800008BF186802D0022972D15868C0F30060C6
:1050900070BD012908BF186802D0022968D158687C
:1050A000C0F3C05070BD012908BF186802D00229A2
:1050B0005ED15868C0F3805070BD012908BF1868E0
:1050C00002D0022954D1586857E0012908BF186856
:1050D00002D002294CD1586852E0012901D1186848
:1050E00051E0022944D1586856E0012903D11868DB
:1050F000C0F3804070BD02293AD158684FE00129C1
:1051000003D11868C0F3404070BD022930D15868FF
:1051100048E0012903D11868C0F3004070BD02299E
:1051200026D1586841E0012903D11868C0F3C03086
:1051300070BD02291CD158683AE0012903D11868D2
:10514000C0F3803070BD022912D1586833E00129C4
:1051500001D118681AE002290AD158682EE0012905
:1051600001D1186815E0022904BF5868C0F3001087
:1051700070BD034600201C007047C0F3405070BD56
:10518000C0F3005070BDC0F3C04070BDC0F34030EC
:1051900070BDC0F3003070BDC0F3C02070BDC0F35F
:1051A000802070BDC0F3402070BDC0F3002070BDF2
:1051B000C0F3C01070BDC0F3801070BDC0F34010CC
:1051C00070BD0000DFF81856EE6A4FF4BA747047ED
:1051D00002460020130000D1704730B500F019F8E6
:1051E00008BF106802D0022902D15068C0F30E0037
:1051F00030BD02460020130000D1704730B500F0EA
:1052000008F808BF106802D0022901D15068C00B0D
:1052100030BDDFF8CC45E56A4FF4BA735A432A44EF
:10522000EC320129704702460020130000D170477C
:1052300030B500F009F808BF106802D0022902D189
:105240009068C0F30B4030BDDFF89445E56A4FF439
:10525000BA735A432A44F8320129704702460020A3
:10526000130018D00229DFF8783509D1D96A4FF434
:10527000BA7042438818D0F8B820C2F30B40704788
:10528000012908D1D96A4FF4BA7042438818D0F87E
:10529000B800C0F30B00704770B5FFF76AFF17D076
:1052A00000F017F8BC33012907D1022A08BF18699A
:1052B0000CD0012A0CD1186808E0022908D1022A72
:1052C00008BF986902D0012A02D1986820F07F4077
:1052D00070BDDFF80C55EE6A4FF4BA746343334483
:1052E000704770B5FFF745FF19D0FFF7F2FFC033E5
:1052F000012907D1022A08BF18690ED0012A0ED150
:1053000018680AE0022918BF032908D1022A08BF39
:10531000986902D0012A02D1986820F07F4070BDC0
:1053200038B50546012100F0B4F9032400212846D0
:1053300000F0AFF9642000F03BF80121284600F0AE
:10534000A8F9642000F034F8641EEFD131BD30B507
:105350004FF4BA714843DFF88814CA6A024402F174
:10536000300301F1300401F130051C605D60002361
:1053700082F82A300022CB6A03F12C040D1D22543E
:105380000C1DCB6A034483F82920CA6A024402F147
:1053900038031C605D60002382F82B300022CB6A4A
:1053A000034483F82D20C96A084480F8282030BDC2
:1053B000DFF83014DFF830240968914208BF4FF459
:1053C000856110D0DFF82424914208BF40F21E31DD
:1053D00009D0DFF81C34994203D14FF405725043D1
:1053E00002E04FF485714843000A032828BFC01E1D
:1053F0000021DFF8002403E013685B1C1360491CE4
:105400008142F9D3704730B5024600200023D9B25B
:10541000545C082180EA040540002D0648BF80F056
:1054200007006400491EF5D15B1CD9B20429EEDBEC
:10543000C0B230BD2DE9F04F80460C46DFF8A073B6
:1054400085B015469A4600F06BF82821381D00F00B
:10545000D5F940464FF0000BFFF779FFD94615B953
:105460000121019102E06D062D0E019500214046BB
:1054700000F0F8F8049445464FF4BA700E9C10FB07
:1054800005F502AE36E0FF2004998DF808000BF117
:10549000050B0878484470709AF80020B2709AF8AA
:1054A0000100F0700AF1020A02A802680092684640
:1054B000FFF7A9FF30710522F86A00F1340302A951
:1054C0005859FBF701FFF86A00F1340134304A59AA
:1054D000531D4351404600F0E1F8012C05D1F96A13
:1054E000491991F82B000028F9D04046FFF72FFF0B
:1054F00009F1010901995FFA89F08842C3DB0121B2
:10550000404600F0AFF84046FFF721FF00F008F8F2
:105510002821381D00F072F9584605B0BDE8F08F1B
:10552000282107F1300000F069B92DE9FC4F8146D0
:105530000E46AB4D85B0924600F087F82821281D15
:1055400000F05CF900F077F830788DF80C0003AFCC
:10555000FF2603A800F07EF838714C464FF4BA706D
:1055600010FB04F4E86A00F134030522185903A97A
:10557000FBF7AAFE00F061F80021484600F072F83F
:10558000484600F08BF84FF00008CDF808808DF801
:1055900000A04FF0050BDDF818A0E96A091991F891
:1055A0002B0058B90298401C029040F2F511029865
:1055B0008842F2D300F03FF8002039E000F03BF8D9
:1055C00025E003A88DF80C6000F044F8387105223E
:1055D000E86A00F1340303A91859FBF775FE00F0DF
:1055E0002CF8484600F05AF8E96A09190BF1050B46
:1055F00091F82B000028FDD0886B5FFA88F10AEB48
:1056000081020168116000F016F808F101089DF8A8
:1056100000105FFA88F08842D3D30121484600F099
:1056200021F800F012F82821281D00F0E7F858466C
:1056300007B0BDE8F08F484689E6E86A00F134011A
:1056400034300A59531D03517047282105F13000A9
:1056500000F0D4B87E70BE70FE7001A902680A60C6
:1056600001A8D0E610B500F00CF8443003E010B506
:1056700000F007F8543081880068BDE81040FEF75C
:10568000ADB9574BDC6A0A464FF4BA71484320441F
:10569000704710B5FFF7F5FF4C30ECE7F8B5504E0A
:1056A000F16A044625464FF4BA70454301F12C02D5
:1056B00051190878002840F081804A681178204606
:1056C00000F07DF80146F06A28442C30012742683A
:1056D0000770531C4360F06A284480F82810F26A6F
:1056E0002A44283253691069834215D10023D370AC
:1056F0000127F26A2A4482F82D30321DF06A2844CC
:105700002830331D02614361027832714771436969
:105710005A1C4261012017E03078401CC7B2042FA8
:105720000EDC12781A70F26A02F13C035F597B1C9E
:1057300002F13C072A447B51012382F82D3003E01B
:10574000D078401CD07000203070F06A421902F10D
:105750003003586860B31B682932984211D1002089
:1057600050700022F06A00F12C0306F130075A5500
:1057700006F13002F06A00F1300334305A514751DB
:105780000BE01B781370F06A00F130022844535983
:105790005F1C5751012280F82A20F06A28442930E2
:1057A0004278012A04D10178204600F008F8014629
:1057B000F26A02F12C03585D00288CD1F1BD32B59C
:1057C00082B00A24009464240B4D6043012301AA93
:1057D00002A92844FEF738FB9DF804003EBD0000F6
:1057E000280900200C00002000D8B80500A24A04B7
:1057F000006CDC02A4040020580600200022FEF702
:10580000CDBF000000380040000400480010000038
:1058100000000048000400000008004820000000CC
:10582000003800400004004800100000000000485C
:105830000080000000080048020000003838000026
:10584000A0000004A0000024E0040000000000000C
:1058500000F83F0000F83F0000F83F0000F83F006C
:10586000FF0F0000FF0F0000FF0F0000FF0F000000
:105870002703270F27032703000000000000000074
:105880000000000000000000074000006D1FCC0178
:105890006D1FCC0132C6010032C601004E6500000A
:1058A0004E65000030B5016884684218416802EB1B
:1058B0005103C90703D54C4401E0491C05D19A4264
:1058C0000AD012F9011B12F8015B002904F8015BF0
:1058D000F3D4491EF7D5F2E70C3030BD10B50749B7
:1058E00079441831064C7C44163404E00A68081DDB
:1058F000114488470146A142F8D110BD2C00000098
:10590000480000004EF68851CEF20001086840F4CD
:1059100070000860BFF34F8FBFF36F8F4FF00070C0
:10592000E1EE100A7047000077B8FFFF4009000061
:1059300048000020000000006DFFFFFFD0010000C4
:105940007A00000000000020FEE7FEE7FEE7FEE729
:10595000FEE770477047704700F006B80148FCF753
:1059600088BA00008807002002490A6888688218FF
:105970000A607047000000200248016841F470018D
:105980000160704788ED00E00000000000000000AA
:10599000010203040607080900F00DF8002801D0F1
:1059A000FFF79CFFAFF300800020AFF30080FDF70E
:1059B00091FD00F002F80120704700F001B80000EE
:1059C00007463846FCF78EF9FBE7000001488047A0
:1059D0000148004779590008DD590008AFF30080FD
:1059E000FFF790FFFFF7D8FF00000000010203045B
:1059F000686A6C747A4C0000FFF7FEBFFFF7FEBFC9
:105A0000FFF7FEBFFFF7FEBFFFF7FEBFFFF7FEBFCA
:105A1000FFF7FEBFFFF7FEBFFFF7FEBFFFF7FEBFBA
:105A2000FFF7FEBFFFF7FEBFFFF7FEBFFFF7FEBFAA
:105A3000FFF7FEBFFFF7FEBFFFF7FEBFFFF7FEBF9A
:105A4000FFF7FEBFFFF7FEBFFFF7FEBFFFF7FEBF8A
:105A5000FFF7FEBFFFF7FEBFFFF7FEBFFFF7FEBF7A
:105A6000FFF7FEBFFFF7FEBFFFF7FEBFFFF7FEBF6A
:105A7000FFF7FEBFFFF7FEBFFFF7FEBFFFF7FEBF5A
:105A8000FFF7FEBFFFF7FEBFFFF7FEBFFFF7FEBF4A
:105A9000FFF7FEBFFFF7FEBFFFF7FEBFFFF7FEBF3A
:105AA000FFF7FEBFFFF7FEBFFFF7FEBFFFF7FEBF2A
:105AB000FFF7FEBFFFF7FEBFFFF7FEBFFFF7FEBF1A
:105AC000FFF7FEBFFFF7FEBFFFF7FEBFFFF7FEBF0A
:105AD000FFF7FEBFFFF7FEBFFFF7FEBFFFF7FEBFFA
