:020000040800F2
:10000000880D0020255900088558000887580008E9
:10001000895800088B5800088D580008000000001F
:100020000000000000000000000000008F580008E1
:1000300091580008000000009358000895580008E7
:100040003D59000841590008455900084959000820
:100050004D590008515900085559000859590008D0
:100060005D59000861590008655900086959000880
:100070006D59000871590008755900087959000830
:100080007D590008000000008159000885590008CA
:10009000895900088D5900089159000895590008A0
:1000A000995900089D590008A1590008A559000850
:1000B000A9590008AD590008B1590008B559000800
:1000C000B9590008BD590008C1590008C5590008B0
:1000D000C9590008CD59000899580008D15900089D
:1000E000D5590008D9590008DD590008E159000820
:1000F000E5590008E9590008ED5900080000000022
:1001000000000000F159000800000000F559000847
:10011000F959000800000000FD590008015A0008C4
:10012000055A0008095A00080D5A0008115A00081B
:10013000155A00080000000000000000195A0008CD
:100140001D5A0008215A00080000000000000000AD
:10015000000000000000000000000000000000009F
:10016000000000000000000000000000255A000808
:10017000295A0008000000000000000000000000F4
:10018000000000002D5A00080000000000000000E0
:10019000000000000000000000000000000000005F
:1001A0000000000000000000315A0008355A000825
:1001B000395A00083D5A0008415A00080000000062
:1001C00000000000455A0008000000000000000088
:1001D000495A00084D5A000840F0200070472DE9A8
:1001E000F14FB0B0924604910DF142013A9A2B9131
:1001F00099464A7000200AE01AF8011B0498309AC8
:1002000090470028049000F042860D98401C0D9005
:100210009AF8000050B12528EED100210022079164
:10022000089209910A920B910C9204E00D9800F04B
:1002300030BE41F001011AF8010F2028F9D023281F
:100240000CD02B2804D02D2805D0302809D00BE065
:1002500041F00201EFE741F00401ECE741F0080151
:10026000E9E741F01001E6E72A280FD1D9F800208C
:1002700052F8040BC9F8002000280F9003D5404223
:100280000F9041F004010AF1010A14E00F92DFF827
:10029000083C0AE00F98984205DA00EB800402EB74
:1002A0004402303A0F920AF1010A9AF80020A2F1B2
:1002B00030000A28EED39AF800002E2803D04FF021
:1002C000FF320E9229E01AF8010F2A2809D1D9F835
:1002D000000050F8042BC9F800000E920AF1010A40
:1002E0001BE02D280CBF0AF1010A002000220E920B
:1002F000DFF8A44B0BE040B90E9AA24205DA02EBFC
:10030000820503EB4503303B0E930AF1010A9AF88C
:100310000030A3F130020A2AEDD3ADF840100FF6F9
:100320007C309AF8001000F0D1FE08B11AF8010BE9
:100330008DF842009DF84200682805D19AF8000027
:1003400068280CD1622106E06C2804BF9AF80000EE
:100350006C2804D171218DF842100AF1010A12A80B
:1003600006901AF801BBBBF125012CD01C3900F016
:100370009481091F022940F29081133900F0B98459
:10038000093900F08A81891E00F04E85491E00F06F
:10039000FB84491E022940F28081091F00F0F48489
:1003A000491F00F0EF80491E00F0A384491E00F0B1
:1003B000D780C91E0CD0891E00F09B84C91E00F096
:1003C000988400F03CBD01230793252100F034BD43
:1003D000D9F8000050F8044BC9F80000002C05942F
:1003E00040F0AB802B994878002800F0A1804FF0B6
:1003F000FF340FF6B02000F079FE201A40F0478558
:1004000000F029BD01236A4602A9304600F00EFE25
:10041000002840F03C856D1EF4D13096079D12AF48
:1004200075B1309E17F8011B0498B047002804905E
:1004300000F02D850D98401C6D1E0D90F2D1309668
:100440000A9D3021002D8DF800100CDD309E012317
:100450006A4602A9304600F0E9FD002840F0178501
:100460006D1EF4D13096059F089D75B1309E17F82A
:10047000011B0498B0470028049000F008850D98EF
:10048000401C6D1E0D90F2D130960B9D3021002D39
:100490008DF800100CDD309E01236A4602A930461B
:1004A00000F0C4FD002840F0F2846D1EF4D13096B7
:1004B00005980899099D471875B1309E17F8011BDA
:1004C0000498B0470028049000F0E1840D98401C87
:1004D0006D1E0D90F2D130960C9D3021002D8DF8BF
:1004E00000100CDD309E01236A4602A9304600F060
:1004F0009DFD002840F0CB846D1EF4D130969DF810
:10050000400041077FF584AE2020002C8DF80000CC
:100510007FF77EAE309D01236A4602A9284600F08F
:1005200085FD002840F0B384641EF4D130956FE659
:100530000FF65830059000F08EBC0E9D002D04D5AE
:10054000204600F0F3FD044607E02A46204600F06E
:1005500009FE002814BF041B2C46089400F07BBC45
:10056000D9F8001051F8040BC9F8001020F000046D
:10057000002121F0FF35CDE9024512AB059378212A
:1005800000F04EBC2B99487820B14FF0FF340FF6A5
:10059000CC2030E79DF84200622860D0682817D050
:1005A0006A283FD06C2806D0712847D074282CD0F8
:1005B0007A281DD062E0D9F8001051F8040BC9F870
:1005C0000010002866D14FF0FF340FF6A82012E784
:1005D000D9F8001051F8040BC9F8001020B94FF0F9
:1005E000FF340FF6902006E70D99018000F033BC30
:1005F000D9F8001051F8040BC9F80010002849D1AF
:100600004FF0FF340FF66C20F5E6D9F8001051F8E2
:10061000040BC9F8001000283CD14FF0FF340FF64E
:100620005420E8E6D9F8001051F8040BC9F800107E
:1006300080B94FF0FF340FF63C20DCE6D9F800100B
:1006400051F8040BC9F8001020B94FF0FF340FF631
:100650002420D0E60D9AD317C0E90023FBE3D9F894
:10066000001051F8040BC9F8001020B94FF0FF3406
:100670000FF60020BFE60D990170ECE3D9F80010E9
:1006800051F8040BC9F8001020B94FF0FF340FF6F1
:10069000E410B0E60D990160DDE39DF842004C28BE
:1006A00007BFD9F80010CA1DD9F80000C21D22F0FA
:1006B0000702C9F80020D2E900010832C9F8002079
:1006C000CDE90201C80F02D007982D210AE0BDF83C
:1006D0004000810702D507982B2103E0C00705D50C
:1006E0000798202112AA1154401C079012A80799BC
:1006F0004BF0200300EB010CDDE90201CDE92C01F8
:10070000612BCDF814C021AC0BD00E98002848BF47
:10071000062105D404BF4BF02000672801D1012138
:100720000E91DDE902014F0047EAD0777E15FF17F1
:100730004FF0FF32974208BF964210D1090341EAB9
:1007400010510003002908BF002808D0ABF1610553
:1007500003211A2D089118D30FF6381110E0DDE9A6
:1007600002014A00521512F1010F11D108030FD1F5
:10077000ABF1610503211A2D08911FD30FF61C114F
:100780000322604600F01AFD65E30FF60411F7E757
:10079000DDE902016A4600F01DFDCDE902014BF0E2
:1007A0002000612811D1059830210170821C05922A
:1007B000BBF1610F0CBF7821582102E00FF6D80180
:1007C000DEE741700798801C0790DDE9020120F008
:1007D000000231F0004308BF002A02D100260025A4
:1007E00042E14BF02008B8F1610F40F092800E9882
:1007F000002847BF21210191401C0190019FDDE9A4
:100800002C017F1C00220023DDE9024500F01AFDC7
:1008100038BF85F0004500998DF88420091F002F0E
:1008200000910DF1850632DD204629460022002385
:1008300000F022FD2BD21C2200F038FD04460D46AC
:1008400000F0D2FDFF1F002F804609DD00F0E8FD1B
:1008500002460B462046294600F0AAFE04460D46F5
:10086000F01D0721B8F1000F0CDD491E5EBF08F036
:100870000F0200F8012D4FEA2818F3D502E00022FC
:1008800000F8012D491EFAD5C61D002FCCDC0DF154
:100890008500361A01980DF185048642D8BF30468E
:1008A00000282FD4B04206DA0DF185010A5C082A2F
:1008B000A8BF0F2100DA0021024621AB134400E05B
:1008C000401E13F80159521E8D42F9D00F2904D150
:1008D0000DF185018B5C5B1C8B54002A04D50099BB
:1008E000091D21AC401C0091411E0BD462181378E5
:1008F0003033DDB23A2DA4BF5B443A3B491E02F8C7
:100900000139F4D50E99002940F1AC80421E0E92B7
:10091000A8E00099DFF8042747F29750414391FB84
:10092000F2F20092DDE92C45C2F10702002A25F01F
:10093000004504DD2046294600F04CFB0BE0524206
:100940000020DFF8DC1600F045FB02460B4620468F
:10095000294600F09FFE04460D46B8F1660F06BF1B
:10096000009F0A3706270E983F18142FC8BF142778
:1009700030208DF884000DF18506002F34DD2046EF
:10098000294600F0ABFF01460A4606F108030420A1
:100990000A26B2FBF6F606EB860EA2EB4E023032CA
:1009A00003F8012C0A22B6FBF2F202EB820EA6EB50
:1009B0004E063036401E03F8026DE9D1083F002F85
:1009C00003F10806D9DD084600F09AFF02460B46FF
:1009D0002046294600F0ECFD0022DFF8483600F002
:1009E0009DFF04460D46CAE70DF18500361A0DF14C
:1009F000850404E00098401E761E0090641C207858
:100A00003028F7D0B8F1660F02D10099491C04E0F4
:100A1000B8F1650F0CBF012100210E98081886421D
:100A2000B8BF701E00281DD4B04204DA215C3429FE
:100A3000C8BF392100DC30210246631E9D1800E04A
:100A4000401E15F80169521E8E42F9D0392902D193
:100A5000A15C491CA154002A04D50099491C1C46DC
:100A6000401C00910646009D01F02EF8406A077870
:100A7000DDF8388030B2002802DC01260FF2206455
:100A80004BF02000662808BF6D1C16D0672846D1A1
:100A900028B210F1040F48DB404546DA9DF84000CB
:100AA0006D1C010703D430B24045D8BF804628B240
:100AB000B8EB000848BF4FF000080FFA85FBBBF108
:100AC000000F00F3B5800898411C08913022059969
:100AD0000A54B8F1000F03DC9DF84000010704D56B
:100AE0000898411C089105990F5418EB0B0FB8BFDB
:100AF000C8F100052DB26842A84432B20B9090456F
:100B0000B8BF4646059B089836B20996324621463C
:100B1000184400F053FBA8EB06000C90D2E0BBF1A8
:100B2000610F17D14FF0700B19E030B2404504DA75
:100B30009DF840100A0758BF8046B8F1010848BF29
:100B40004FF00008BBF1670F14BF4FF0450B4FF09B
:100B5000650B04E0BBF1410F08BF4FF0500B089844
:100B6000411C0891B8F1000F059914F8012B0A54A3
:100B700003DC9DF8400001071AD50898411C089134
:100B8000B8F1000F05990F5412DD761E30B2804582
:100B9000B8BF46460598089B32B22146184400F07B
:100BA0000DFB089936B271180891A8EB06000B905E
:100BB00005980899084429B2002980F800B003D4A8
:100BC0002B224270821C04E02D2242700D46821CB2
:100BD0006D4200212CAB28460AE004460A2094FB13
:100BE000F0F000EB8005A4EB450403F8014B491C31
:100BF00000B20028F1DC012906DC4BF0200065285A
:100C000004BF302002F8010B00292CAB08D13020A2
:100C100002F8010B06E0491E585C303002F8010B67
:100C20000029F8DC059908980844121A099249E04D
:100C300030B229B288421CDA0598089B32B22146AC
:100C4000184400F0BBFA089936B271180891ABEB62
:100C50000600B8F1000F0B9003DC9DF8400002077E
:100C600004D5059847540999491C0991CDF830805D
:100C700028E00598089B2AB22146184400F09EFA05
:100C80000898761B5844B8F1000F089003DC9DF8D3
:100C900040100A0703D5411C089105990F5430B242
:100CA0008045B8BF46460598089B32B204EB0B015D
:100CB000184400F083FA089836B230180890A8EB70
:100CC00006000B909DF8400000F01400102840F042
:100CD000C280079A08990B988A18099982180C986B
:100CE0008A1882180F98824280F2B580821A0A927E
:100CF000B1E09DF84200622808D068280ED06A282A
:100D000014D06C281FD0712810D01CE0D9F8001026
:100D100051F8040BC9F80010C0B21AE0D9F800105D
:100D200051F8040BC9F8001080B212E0D9F80000A5
:100D3000C21D22F00702C9F80020D2E900010832E2
:100D4000C9F8002006E0D9F8001051F8040BC9F8E2
:100D500000100021CDE902019DF8400001075AD59D
:100D6000DDE90223002B08BF002A54D04BF02000FD
:100D7000782850D1079812A930220A54401C431CED
:100D8000079301F800B046E09DF84200622808D0C1
:100D900068280ED06A2814D06C281FD0712810D073
:100DA0001CE0D9F8001051F8040BC9F8001040B24B
:100DB0001AE0D9F8001051F8040BC9F8001000B27D
:100DC00012E0D9F80000C21D22F00702C9F8002085
:100DD000D2E900010832C9F8002006E0D9F8001075
:100DE00051F8040BC9F80010C117CDE90201002920
:100DF00002D507982D210AE0BDF84000810702D5F1
:100E000007982B2103E0C00705D50798202112AAD7
:100E10001154401C079012A80799014405915946A6
:100E200002A800F04DF816E001200790D9F8000064
:100E300050F8041BC9F800008DF848100BE00121A0
:100E40002522BBF1000F07918DF8482003D0022224
:100E500007928DF849B00F9A07980A990C9C121ABC
:100E60000898521A0B99121A0998521A121A9DF8D8
:100E70004000141B41073FF5D1AA2020002C8DF81B
:100E800000007FF7CBAA309E2546FFF7BBBA4FF094
:100E9000FF3031B0BDE8F08FCBCCCC0C686A6C74FD
:100EA0007A4C00007072696E74665F733A206261FA
:100EB0006420257320617267756D656E7400000093
:100EC0002DE9FC4707468A463C6950466F2808BF13
:100ED000082505D0FFF780F9782814BF0A251025CA
:100EE000D7E900013C2680468946BAF1640F18BF55
:100EF000BAF1690F05D1002903D5D8F1000869EBD3
:100F00004909B9F1000F08BFB8F1000F0CD1386BD7
:100F100050B9082D3AD197F83800010736D530225C
:100F20003B2684F83B2031E08DF800A0404649463E
:100F30002A46EB1700F0CCFD3032D0B2761E3A28AC
:100F400001960EDAA255404649462A46EB1700F0B4
:100F5000BFFD80465FEA010908BFB8F1000F05D167
:100F600008E09DF800001218513AEBE7F868A11963
:100F70008842DBD3082D09D197F83800010705D541
:100F8000A05D302802D0761E3020A055C6F13C026C
:100F9000BA61A119F960386B824208DA821A3A62A2
:100FA0004FF6EF70398F01403987BDE8F38700288D
:100FB0000ED597F8380000F01400102808D17B6B8C
:100FC0007969386A5B1A1B1A9A1A002AC8BF3A62F2
:100FD000BDE8F3872DE9D04306460F4614464FF08F
:100FE0000008DFF8449012E0E00707D542464B4680
:100FF0003046394600F092FC06460F4640464946C8
:1010000042464B4600F08AFC641080468946002C1C
:10101000EAD130463946BDE8D0830000A086010001
:101020000000F03F84D7974100002440F8B5054602
:101030000E4617461C4600205CB117F8011BB0682D
:10104000A847B06030B1F06A401CF0620020641E16
:10105000F3D1F2BD4FF0FF30F2BD00007072696E47
:1010600074665F733A20256E20646973616C6C6FDF
:10107000776564007072696E74663A2062616420FC
:10108000256E20617267756D656E7400000000004A
:101090006E616E004E414E00696E6600494E46001C
:1010A00030000EE002684368024408305FEAC37C07
:1010B00044BF4B445B1E52F804CB43F804CB091FDA
:1010C000F9D150F8041B0029ECD17047C9B202785D
:1010D0008A421AB11CBF10F8012FF9E718BF00208F
:1010E00070470268531C03601170704780B500B9E7
:1010F00006A005490B681BB122220021984701E098
:1011000000F069FD222002BD80090020636F6E732C
:10111000747261696E742068616E646C65723A20E5
:10112000626164206D6573736167650000F101039E
:10113000810704D010F8011B820781B1FAD102683F
:10114000A2F10131914311F0803104BF50F8042F16
:10115000F6E709BAB1FA81F100EBD100401CC01AE0
:1011600070472E00C9B2830706D0521E22D310F852
:10117000013B9942F7D11FE0083A13D302F1040270
:1011800041EA012141EA014150F8043B121F21BF0D
:101190004B40A3F1013C2CEA030C1CF0803FF3D040
:1011A000C9B2001F083210F8013B521E28BF91EA55
:1011B000030FF8D818BF0120401E70474AB1000045
:1011C00011F8013B521E00F8013B1CBF11F8013B16
:1011D000F8E7704710B5144600F002F8226010BD21
:1011E000C1F30A5343B14A0012F5001F28D2A3F2FB
:1011F000FE32A1EB0251704750EA410C20D001F0C1
:10120000004C31EA0C01B1FA81F204BFB0FA80F36C
:10121000D2180B3AB2F120032CBF00FA03F191402F
:1012200041EA0C013EBFC2F1200C20FA0CF3194335
:101230009040524240F2FD33D21A01EB0351704705
:101240000022704741EA030C50EA4C0C52EA0C0CA5
:101250004FF4001C09D307D01CEB410F9CBF1CEBC3
:10126000430F8B4208BF824270471CEB430FFBD8F1
:10127000994208BF9042704741EA030C50EA4C0C77
:1012800052EA0C0C4FF4001C09D307D01CEB410FA1
:101290009CBF1CEB430F994208BF904270471CEB68
:1012A000410FFBD88B4208BF82427047124254D490
:1012B00040F2FF7C1CEA11530FD0634531D09B18DC
:1012C00063453CBF01EB0251704701F0004141EA28
:1012D0000C510020AFF30080704750EA410320D04A
:1012E00001F0004C91EA0C011CD0B1FA81F30B3BE8
:1012F0009A420DD9D21A994051EA0C01C3F1200C3F
:1013000020FA0CFC61449840531C40F2FF7CD7E764
:10131000914041EA0C01C2F1200C20FA0CF3194370
:1013200090407047B0FA80F31533202BE0D3202A89
:10133000EED3203A203B9A4209D9D21A00FA03F19F
:1013400041EA0C010020531C40F2FF7CB8E700FA90
:1013500002F141EA0C0100207047524240F2FF7C4A
:101360001CEA11530DD06345DBD0B2EB030C3CBF3C
:10137000A1EB025170470CF1010221EA035141F443
:10138000801150EA410CCCD001F0004C352A27DC0A
:1013900030B481EA0C01B2F1200309DAC2F1200372
:1013A000044601FA03F5D0402843D1409C400CE0AC
:1013B000C3F12002450020FA03F418BF44F00104F1
:1013C00021FA03F091400C43002174F1004550F1E3
:1013D000000051EB0C01244230BC7FF47BAF70471E
:1013E0006146002076E70000C1F30A5340F21E4236
:1013F000D31A0CDDCA0283F3070342EA505242F0CB
:101400000042DA4002EBE17282EAE17070476FEA73
:10141000E17203F2E13008B182F000407047000051
:1014200010F0004160B148BF4042B0FA80F29040F5
:10143000D21CC2F5846241EA025202EBD02140057F
:1014400070470000841A71EB030604D26E40001B43
:10145000B141121973414FF4001C1CEB410F34BF12
:101460007CEB430683E00C0DA4EB1356362E00F301
:101470007C80012E45EAC32341DC43EA525312BF6C
:10148000D20292025B08240545EAC12141EA50518B
:10149000D2EBC020994125D407D1B0FA80F610FADA
:1014A00006F162D00020203608E0B1FA81F6B140A2
:1014B000C6F1200220FA02F21143B0404FEAF47460
:1014C000B4EB465434F001064FEA74040AD8D6F55A
:1014D0000016760D04F00044F04061FA06F2504028
:1014E000F1404840C00A40EA415021F0004128BF85
:1014F0005FEA500550F1000044EBD12135E0DB0AF2
:1015000045EAC121C90AB6F120050EDD42EA0242D0
:10151000120CC5F1200603FA06F6EB4042EA060576
:101520006D42984161F100010DE062FA06F5F2406A
:10153000554063FA06FC82EA0C02F3405A406D42C1
:10154000904161EB030111F4801F05D1641E620517
:1015500002D06D004041494121F48011430875F1EA
:10156000004350F1000041EB045170BC70471CEB8C
:10157000410F15D223F0004352EA43060BD04FEA45
:101580004C0CBCEB410F04D80C0D661E342EB7DD9D
:10159000EBE7801A994150EA410608BF0021E4E7D1
:1015A00008BF1CEB430F28BF6FF00001DDE7000010
:1015B00070B491EA030F4FF000457FF543AF6B40E5
:1015C000841A71EB030603D2001BB1411219734157
:1015D0004FF4001C1CEB410F34BF7CEB430442E092
:1015E0000C0DA4EB1356352E4FDC45EAC323DB0A62
:1015F00045EAC121C912B6F120050DDD63FA05F6F1
:10160000EB4086EA0305124218BF45F00105C018F9
:1016100051F100010CD213E062FA06F5F240554098
:10162000F3415A40B340F3405A408018594107D320
:1016300049085FEA30005FEA350528BF45F001053B
:1016400001F58011420875F1004250F1000041EBB4
:1016500004514E0016F5001F70BC38BF70470020C3
:10166000090D090570471CEB410F10D252EA4306E1
:101670000BD0BCEB410F05D80C0DAB43661E342ECE
:10168000B6DD02E0AB438018594170BC704770BCB6
:1016900070470000F0B540F2FF7581EA030C0CF0D2
:1016A000004C15EA11541DBF15EA1357AC42AF4266
:1016B000E5E0BC41C1F31301C3F31303801A994160
:1016C00043F4801304D2641E001849418018594124
:1016D000C90241EA5051B1FBF3F603FB1611A2FB1C
:1016E0000675D7EBC020A94102D2761E8018594159
:1016F000C90241EA5051B1FBF3FE03FB1E11A2FBEC
:101700000E75D7EBC020A94103D2AEF1010E8018AF
:101710005941890241EA9051760546EA8E2EB1FB85
:10172000F3F603FB1611A2FB0675D7EB8020A94147
:1017300002D2761E80185941C90241EA50514EEA40
:10174000060EB1FBF3F603FB1611A2FB0675D7EBF1
:10175000C020A94102D2761E80185941C90241EA2F
:101760005051B1FBF3F703FB1711A2FB0735D3EB85
:10177000C020A94167F100070CBF004247F00107F4
:1017800066F3D5274FEA1E31B80814F5806412DDE0
:10179000BD0775F1004250EB0E5051EB045111F5AD
:1017A000801F5CBF41EA0C01F0BD4CF07F6141F04D
:1017B000E0410020F0BDBD076D0840EA0E5041F445
:1017C0008011D4F10104B4F120060ADAC4F1200634
:1017D0000200E04001FA06F3E1401843B24015432D
:1017E0000EE0342C13DCC6F1200445EA40056D08F8
:1017F00020FA06F2154321FA06F0A1400D4300211C
:1018000075F1004250F1000051EB0C01F0BD0020D9
:101810005FEA0C01F0BDCFB992185B41B3FA83F7D0
:1018200004BFB2FA82F6BF190B3FB7F120062FBFF3
:1018300002FA06F3BB40C7F1200622FA06F638BFCB
:101840003343BA401CB1E419641E33E77F4231F0E0
:101850000041B1FA81F404BFB0FA80F6A4190B3C40
:10186000B4F120062FBF00FA06F1A140C4F1200612
:1018700020FA06F638BF3143A0403C1B1AE7AC42C1
:101880001ABF05EA1357AF4212E050EA41061CBFE7
:1018900052EA4306BFE750EA4107304661461CBFA3
:1018A00041EA0551F0BD52EA430C08BFC143F0BD07
:1018B00000204FF4001616EB410F98BF16EB430FB4
:1018C00008BF16EB410F24BFC14305E016EB430FE1
:1018D0000CBF61464CEA0551F0BD0000400D40F2DE
:1018E0001E4C40EAC120BCEB115C40F0004003D428
:1018F0008CF30701C84070476FEAE1707047000041
:1019000050B1B0FA80F18840C91CC1F58461090565
:1019100001EBD021400570470146704730B540F2D9
:10192000FF7C1CEA11541DBF1CEA13556445654534
:101930003FE0641981EA030C6FF35F530CF0004C35
:1019400043F48013C90241F0004141EA505EC502F0
:101950001100A5FB020200284FF00000EEFB012061
:101960004FF00001E3FB052118BF42F001024018CF
:1019700000214941E3FB0E01A4F580640D0302D26E
:1019800092184041494154F1010470DD450872F15B
:10199000004250F1000051EB0451A1F5801102D436
:1019A00041EA0C0130BD40F2FF7E4CEA0E510020AE
:1019B00030BD0CEA1355644518BF654581EA030C38
:1019C0000CF0004C41D050EA410E1CBF52EA430ECD
:1019D00002E06146002030BD24422C441BD15FEA66
:1019E000050EF6D0090302BF01460020AEF1140E29
:1019F000B1FA81F5AEEB050401FA05FE0C35C5F12F
:101A0000200100FA05F5C8404EEA000E6FF35F535F
:101A100043F480139CE733F00043B3FA83F504BF2B
:101A2000B2FA82FE75440B3D641BB5F1200E2FBF48
:101A300002FA0EF3AB40C5F1200E22FA0EFE38BFBB
:101A400043EA0E03AA40641C7CE750EA410E14BF2F
:101A500052EA430E6FF000014FF4001515EB430FEF
:101A60008EBF194615EB410F9DE7B4D830BDD4F1B8
:101A70000104B4F120050FDAC4F12005520828BF93
:101A800042F0010210FA05FE01FA05F57244E2BFC8
:101A9000E0402843E1400FE0352C9ADCC5F12004FA
:101AA00052EA400220FA05F218BF42F0010231FA70
:101AB00005F0A1400A43002172F1004250F10000FC
:101AC00051EB0C0130BD00000048704710000020B1
:101AD000D3BBD9B1B2F5803F5BD2022A1ED98C4666
:101AE000B1FBF2F102FB11C31B0443EA1043B3FB49
:101AF000F2FC02FB1C3380B240EA0343B3FBF2F07A
:101B000002FB103240EA0C4000237047022A05D93C
:101B10008446B0FBF2F002FB10C270474AB105D117
:101B200000F0010249085FEA3000704700220023FC
:101B3000704700F053B80B000200002100207047EE
:101B4000F7D3002200237047904271EB030CF2D3CD
:101B500070B5B1FA81F4B3FA83F52C1BA340C4F13C
:101B6000200532FA05F63343A2405FF00046E64016
:101B700002E05B085FEA3202841A71EB030524BFBE
:101B8000204629467641F4D302000B0030000021A4
:101B900070BD70B5B1FA81F4B2FA82F5C4F12004D7
:101BA0006419B4F12006DAD3B2405FF00044F44087
:101BB000002502E052085FEA3303C61A71EB020EF9
:101BC00024BF3046714664416D41F3D302000B00DF
:101BD0002000290070BD012000F002B8704700000D
:101BE00080B5AFF30080024A11001820ABBEFBE7BE
:101BF0002600020038B5040009D004F180056968A8
:101C000009B900F01EF800F021F8012801D10120E7
:101C100032BDA06A08B100F02AF800F00AF821F0FD
:101C20002A01FFE7816000F01BF8BDE8324000F0B8
:101C3000D2BB2068416821F49041416020688168EE
:101C4000704700202870204600F03EBF24216960C4
:101C500020680268520852000260204600F022BA52
:101C60002068016841F0010101602046704720466C
:101C700000F04EBB2DE9FC47054605F1800488467F
:101C800060682028174699464DD1B8F1000F14BF5F
:101C9000002F012048D02078012844D00121217054
:101CA0000020E0602122626005F1540600F062FF2E
:101CB000378082467780A868B0F5805F04BF2869C6
:101CC00000280EBF4746404600270021217080466D
:101CD0000FE018F8012B826208E02868B8F1000FC5
:101CE000F7D137F8021BC1F3080181627088411EE9
:101CF000718053467088CDF80090002807D00022EC
:101D00008021284600F096FB0028E6D005E000225E
:101D10004021284600F08EFB08B1032004E020207B
:101D20006060002000E00220BDE8F68738B500F0D2
:101D300011F80DD109B1140001D1012032BD047890
:101D4000012C05D000F00CF8BDE8384000F0CEBB07
:101D5000022032BD034603F180008468202C7047C6
:101D6000012505700020D866DFF828431868A042D6
:101D70000CD04068040209D5186850E8004F0546A9
:101D800044F0806445E800400028F5D118467047CB
:101D90002DE9F041054640F60F0C2A68D36910463C
:101DA00013EA0C0F0768966805F15C0407F0200041
:101DB00003F020010DD1002914D010B9F00040F13A
:101DC0008D806169002900F038812846BDE8F04126
:101DD0000847DFF888C816EA0C0F04BFDFF880E870
:101DE00017EA0E0F7AD05FEAC37E48BF5FEAC75892
:101DF00007D54FF0010EC2F820E0226B42F001023D
:101E000022639A070AD5F20708D5D5F80080022286
:101E1000C8F82020226B42F0040222635A070AD538
:101E2000F20708D5D5F800800422C8F82020226BDC
:101E300042F0020222631A070DD5002808BF16EAF5
:101E40000C0F08D0D5F800C00822CCF82020226B57
:101E500042F0080222631A0509D57B0107D52F68D5
:101E60004FF400623A62226B42F020022263226B3E
:101E7000002A32D031B108B9F00003D5616909B147
:101E800028468847206B29688A68510602D410F0DA
:101E9000280F1DD0284600F0B5FB28688168480649
:101EA00011D500F0D6F8FCD1206A60B10FF2C971EB
:101EB0008163206A00F098FE00280ED0206A816BB2
:101EC000BDE8F04108472846BDE8F04100F0C5BE36
:101ED000284600F0C2FE00202063AEE02069012801
:101EE0006DD1D8066BD5F90669D510201062296826
:101EF000886841062ED5216A0868406880B20028AB
:101F0000EBD022889042E8DA6080086801688A068F
:101F10001AD400F0ACF821F4807100F096F8F8D1F2
:101F200000F0D7FAFCD100F0A7F8FCD12020E06245
:101F30000021216100F09BF821F0100100F085F8EC
:101F4000F8D1206A00F01CFE21886088091A89B245
:101F5000284630E0228861886088511A00281CBF1A
:101F600088B2002869D02A46106850E8003F05462C
:101F700023F4907300F063F8F6D1106800F10803C1
:101F800000F1080653E8003FDFF88003034046E80D
:101F900000300028F1D12020E0620023236163613A
:101FA000136853E8003F146823F0100300F076F83C
:101FB000F6D189B21046BDE8F04100F04FBED8021C
:101FC00009D5710207D54FF4801010622846BDE88C
:101FD000F04100F044BE180609D5390601D430029C
:101FE00005D5A16949B32846BDE8F0410847580620
:101FF00011D579060FD500F03AF821F0400100F034
:1020000024F8F8D12020A0620021A1612846BDE873
:10201000F04100F025BE180206D5790004D5284607
:10202000BDE8F04100F01DBED80148BF002F04D527
:102030002846BDE8F04100F015BEBDE8F08145E856
:1020400000300028704721F4F07142E800100028A9
:102050007047296801F1080252E8001F286800F162
:10206000080321F0400143E8001000287047286869
:1020700050E8001F02467047286800F1080151E847
:10208000001F00F1080321F0400143E80010002880
:10209000704700000080004023F4807344E8003063
:1020A00000287047F8B50446DFF8AC0722681368CB
:1020B000A168034020690B4361690343E0690B4356
:1020C0000343136000255168E06821F44051014347
:1020D0005160A369DFF884178A421CBF206A03435A
:1020E0009668DFF87C07DFF87CE7DFF87C7706404E
:1020F000334393600FF29456D36A606A1B0940EA37
:102100000313D3627245DFF864074FF400433ED1F6
:102110003F6807F00307032F47D8DFE807F002897D
:10212000789D4FF0010CE169B1F5004F4FF6F07763
:1021300040F0B480BCF1000F0FD0BCF1010F00F0F3
:10214000A580BCF1020F0CD0BCF1040F00F0A180FF
:10215000BCF1080F00F0A080CDE001F06CF8002881
:1021600014D0626A616836F81230B0FBF3F04A08A6
:1021700002EB4002B2FBF1F0A0F11001B942EBD248
:102180000740C0F3420007432068C760B4E0DFF8AF
:1021900084C762452CD13F6817F00C075AD0042F32
:1021A00046D0082F33D00C2F56D04FF0100C8A4257
:1021B000B9D1BCF1000F09D0BCF1020F0AD0BCF1BB
:1021C000040F4CD0BCF1080F4CD094E001F033F870
:1021D0000028DBD0616A36F81120B0FBF2F66268A5
:1021E00002EB42018E4202D31303B3423CD282E09F
:1021F000DFF814C862450DD13F6817F0300729D0C9
:10220000102F15D0202F02D0302F25D0CDE74FF042
:10221000020CCCE7DFF8F4C762450CD13F6817F039
:10222000C00717D0402F03D0802FF0D0C02FECE78D
:102230004FF0040CBBE78A42B7D13F6817F4406700
:1022400008D0B7F5806FF3D0B7F5006FDFD0B7F5E2
:10225000406FDAE7AC46AAE74FF0080CA7E700F0BA
:10226000BBFFB5E71846B5E75008002110EB062084
:1022700051EB16610023FFF72BFCA0F54076DFF849
:102280009077BE4237D22168C86035E000F0DBFFAE
:1022900065E700F0A1FF62E7184662E7BCF1000FB6
:1022A0000CD0BCF1010F1ED0BCF1020F09D0BCF163
:1022B000040F1BD0BCF1080F1BD01CE000F0BBFFCB
:1022C000D0B1626A36F812306168B0FBF3F000EB0F
:1022D0005100B0FBF1F0A0F11001B9420BD222681D
:1022E00080B2D06008E000F0AEFFE9E700F074FFD4
:1022F000E6E71846E5E7012504F16800012100231F
:10230000418001808360C3602846F2BDFEFFFFEF7D
:1023100090F82810CA0706D502685368C16A23F4EA
:1023200000330B43536090F828108A0706D50268E3
:102330005368016B23F480330B43536090F82810EB
:102340004A0706D502685368416B23F480230B4388
:10235000536090F828100A0706D502685368816B0D
:1023600023F400430B43536090F82810CA0606D5A7
:1023700002689368C16B23F480530B43936090F819
:1023800028108A0606D502689368016C23F400536E
:102390000B43936090F828104A0610D502685368E2
:1023A000416C23F480130B435360436CB3F5801FDF
:1023B00005D15368816C23F4C0030B43536090F83C
:1023C00028100A0606D501684A68C06C22F400226B
:1023D00002434A607047F8B5044604F180050020C6
:1023E000E8606FF07E4700F0C5FB06462068016894
:1023F0000A0708D50097334600224FF40011204603
:1024000000F018F860B9206801684A070AD50097FB
:10241000334600224FF48001204600F00BF808B14B
:102420000320F2BD202068602021A9600020E06622
:102430002870F2BD2DE9F041069C05460E469046F7
:102440001F462868C1693140B1420CBF01200020FD
:10245000404529D114F1010FF3D000F08BFBC01BD4
:10246000844200D34CB900F029F800F032F8FCD1D6
:1024700000F01DF80021017014E0286801684A0787
:10248000DFD5C1690805DCD52A684FF40061116207
:1024900000F014F800F01DF8FCD100F008F8C1605D
:1024A00000220270032000E00020BDE8F08105F169
:1024B000800020214160202282607047286850E817
:1024C000001F024621F4D07142E800100028F5D127
:1024D0007047286800F1080151E8001F490800F121
:1024E0000803490043E8001000287047B0B50346D0
:1024F00000209965FF2403F15C010A804A8048614D
:102500009868B0F5805F04D1186990B940F2FF1463
:102510000FE018B9186960B17F2007E0B0F1805F63
:1025200006D1186908B97F2403E03F20888001E0C4
:1025300000248C8003F180040020E0602225A56047
:10254000186800F1080555E8005F00F1080745F03C
:10255000010547E800500028F2D18868B0F1005F1B
:102560002BD18889824228D39A68B2F5805F04BF54
:102570001869002807BF0FF205324A610FF24120A7
:10258000486100212170186940B1196851E8001FA5
:102590001A6841F48071FFF758FDF6D1186800F110
:1025A000080151E8001F00F1080441F0805144E89F
:1025B00000100028F2D10020B0BD9868B0F5805F0F
:1025C00004BF1869002807BF0FF229124A610FF2F1
:1025D000D500486100212170186948B1196851E897
:1025E000001F1A6841F49071FFF72FFDF6D1E2E762
:1025F000186850E8001F024641F02001FFF725FD52
:10260000F6D1D8E710B500F011F8FCD100F018F8B9
:10261000FCD1C16E012902D100F024F8FCD12021A7
:10262000C0F888100022C266026710BD016851E838
:10263000002F0B4622F4907243E8002100297047D6
:10264000016801F1080201F1080452E8002FDFF8E7
:10265000C4130A4044E8002100297047010000101B
:1026600020010004026852E8002F036822F01002E3
:1026700043E8002100297047806A00F156010022DA
:102680000A8100230B8000F0E8BA0000010002007C
:102690000400060008000A000C00100020004000A2
:1026A0008000000138B500F04CF81DD14B6A9188CC
:1026B000846D0B402370816D4B1C00F048F817D1DE
:1026C00000F053F800F066F8FCD100F047F80AD1AA
:1026D000136100F055F8FCD10168CB69DC0644BFFA
:1026E00010230B6263E067E0886940F008008861AE
:1026F00031BD000038B500F024F81DD14B6A918837
:10270000846D0B402380816D8B1C00F020F817D165
:1027100000F02BF800F03EF8FCD100F01FF80AD1D1
:10272000136100F02DF8FCD10168CB69DC0644BFD1
:1027300010230B623BE03FE0886940F008008861AD
:1027400031BD00F15C020168D36A222B70478365BA
:1027500051884B1E53805188002970472021D16237
:1027600000235361116901297047036853E8003F52
:10277000046823F4907344E800310029F5D17047D0
:10278000016851E8003F0C4623F0100344E8003193
:1027900000297047016801F1080353E8003F5B0816
:1027A00001F108055B0045E80031002970471188F8
:1027B000BDE8344000F052BABDE8324000F06CBDD4
:1027C0002DE9F84300F0AEF841D1A08978B96088CE
:1027D00000283ED0A18988423BDA00F0BEF88E483E
:1027E000606100F0D9F834E0304600F055FDA806ED
:1027F000EDD500F091F80870B06D421C00F0C3F800
:1028000014D0E90748BF5FEAC95201D500F008F9C2
:10281000A80703D5F90701D500F0ADF800F090F84E
:1028200020B1304600F019FA0020206360880028AB
:10283000DDD100F0CAF8D7D1216100F0B8F844BF6B
:10284000102101622188304600F008FACFE700F03D
:102850000FF8BDE8F1830000F369FFCF008000406E
:10286000FFF4FF1100380140881002400024F400FA
:10287000816941F008018161704700002DE9F8434A
:1028800000F050F841D1A08978B9608800283ED086
:10289000A18988423BDA00F060F86048606100F08E
:1028A0007BF834E0304600F0F7FCA806EDD500F0E8
:1028B00033F80880B06D821C00F065F814D0E90789
:1028C00048BF5FEAC95201D500F0AAF8A80703D5AE
:1028D000F90701D500F04FF800F032F820B130468A
:1028E00000F0BBF90020206360880028DDD100F0F3
:1028F0006CF8D7D1216100F05AF844BF1021016271
:102900002188304600F0AAF9CFE7FFF7B1FFBDE814
:10291000F1830000004400403168486AB16D08EA64
:1029200000007047064606F15C043068B4F8048085
:10293000C5690146D1F800908768E16A222970478D
:10294000680708D5F90706D5326804201062206BA5
:1029500040F002002063206B7047306800F10802ED
:1029600052E8001F00F1080821F0805148E80010EB
:102970000028F2D17047326802201062206B40F0CC
:10298000040020637047B2656088411E6180306832
:10299000C56915F0070F7047316851E8001F3268AC
:1029A00041F0200142E800100028F5D1704730685E
:1029B00050E8001F024621F0100142E800100028F4
:1029C000F5D13068C169CA067047316851E8001F07
:1029D000326821F4807142E800100028F5D1306897
:1029E00000F1080100F1080351E8001F0948014007
:1029F00043E800100028F2D12020E062002161614C
:102A0000206901287047000000480040004C004049
:102A100000FD0F00FEFFFFEFA5260008F5260008C9
:102A200001210162206B40F001002063704700002B
:102A3000E0B508220021684600F052FD0021009117
:102A40000191684600F056FD00F08AFD4448816817
:102A500041F001018160816801F001010291029958
:102A6000026842F080520260006800F080500290DC
:102A7000029800F0C4FD07BD10B586B000F069F8FB
:102A80002168384881421DD13748C16841F48041EE
:102A9000C160C16801F4804100910099026842F070
:102AA000020202604FF46041006800F002000090F2
:102AB000022200982D4800F046F80521059101A951
:102AC00000F0AEFD06B010BD18B597B000F041F8AB
:102AD0004422002106A800F003FD20682449884212
:102AE0002FD1022200210692089106A800F08CFE48
:102AF00008B100F0F3FC1C48C16841F40031C1602A
:102B0000C16801F4003100910099026842F00102AD
:102B100002600C21006800F0010000900222009881
:102B200000F011F84FF090400721059101A900F045
:102B300077FD00220021262000F094FF262000F0DF
:102B4000AFFF18B010BD01910292002103910491D2
:102B5000704704461422002101A800F0C1BC000007
:102B600058100240003800404C1002400004004859
:102B70000044004001480068704700BF000000208A
:102B800010B500F1240200215378022B03D0042059
:102B90009061012122E003681C6824F00E041C608F
:102BA000536A1C6824F480741C60006803685B0826
:102BB0005B000360012092F82030D46903F01F030A
:102BC00098406060936AD06A5860106B30B10368B7
:102BD00023F480730360506B936B43600123537045
:102BE00000201070084610BD38B500F12402002402
:102BF0005178022906D0042090610121517014708F
:102C0000012428E001680B6823F00E030B600168C3
:102C10000D686D086D000D60516A0B6823F48073B8
:102C20000B60012192F82030D56903F01F03994011
:102C30006960936AD16A5960116B31B10B6823F4F2
:102C400080730B60516B936B4B6001235370147056
:102C5000516901B18847204632BD704770477047BF
:102C600070477047704700002DE9F84304006DD0AD
:102C70002078DFF8EC65C10717D500F0D2F90CD148
:102C800001F0030103290AD06068B0F5803F2AD122
:102C9000306840F48030306037E00828F4D1306884
:102CA000810302D56068002850D02178880759D563
:102CB00000F0B7F943D101F00301022941D0E068E7
:102CC00000286AD0316841F480713160FFF752FF0B
:102CD0000546306841055DD4FFF74CFF401B0328D3
:102CE000F7D3032093E1B0F5A02F306806D140F46C
:102CF00080203060316841F4803105E020F480307C
:102D00003060316821F480213160606858B1FFF78C
:102D100031FF054630688103C7D4FFF72BFF401B06
:102D20006528F7D3DDE7FFF725FF05463068810307
:102D3000BBD5FFF71FFF401B6528F7D3D1E7042859
:102D4000BDD13068410503D5E068002800F05C8102
:102D500000F05FF9DFF81405006800F0CBFE0028F2
:102D600040F052812078DFF80875010734D560699A
:102D70000028786821D040F001007860FFF7FAFE63
:102D800005467868810727D4FFF7F4FE401B032827
:102D9000F7D3A6E700F03DF9E4E7306820F480704F
:102DA0003060FFF7E7FE054630684105DAD5FFF7EA
:102DB000E1FE401B0328F7D393E74008400078600A
:102DC000FFF7D8FE05467868810705D5FFF7D2FEE4
:102DD000401B0328F7D384E72078410763D5B06D03
:102DE0000025C10009D4B06D40F08050B0650125C8
:102DF000B06D00F0805000900098DFF87884D8F82B
:102E00000000C10513D4D8F8000040F48070C8F861
:102E10000000FFF7AFFE8146D8F80000C10506D4D8
:102E2000FFF7A8FEA0EB09000328F5D359E7A06837
:102E3000012804D1386840F00100386010E005280E
:102E4000386806D140F004003860396841F001016B
:102E500005E0400840003860396821F0040139601D
:102E6000A06841F2893860B1FFF784FE8146386876
:102E7000810713D4FFF77EFEA0EB09004045F6D38F
:102E80002FE7FFF777FE81463868810706D5FFF701
:102E900071FEA0EB09004045F6D322E71DB1B06DED
:102EA00020F08050B0652078810621D5A0690028E7
:102EB000B8680ED040F00100B860FFF75BFE054631
:102EC000B868810714D4FFF755FE401B0328F7D3D9
:102ED00007E740084000B860FFF74CFE0546B868B9
:102EE000810705D5FFF746FE401B0328F7D3F8E618
:102EF000E069002800F08A80B16801F00C010C291B
:102F000055D00228306820F0807030603AD1FFF749
:102F100031FE05463068810105D5FFF72BFE401BC9
:102F20000328F7D3DDE6F068DFF84C13226A084087
:102F3000616A1043491E40EA0110226BA16A5208DF
:102F400040EA0120616B521E490840EA4250491E86
:102F500040EA4160E16A40EAC160F060306840F0F8
:102F600080703060F16841F08071F160FFF702FE1F
:102F700004463068810149D4FFF7FCFD001B03289B
:102F8000F7D3AEE6F168DFF8F40289088900F16052
:102F9000F1680140F160FFF7EDFD04463068810102
:102FA00034D5FFF7E7FD001B0328F7D399E6012886
:102FB0002AD0F068226A00F00301914201BF00F0BC
:102FC000F0011031626AB1EB021F1DD1A26A00F458
:102FD000FE41B1EB022F02BF00F07841E26AB1EB93
:102FE000C26F11D1226B00F4C00101F5001152082B
:102FF000B1EB425F08D1616B00F0C06000F100707E
:103000004908B0EB416F01D0012000E00020BDE88D
:10301000F2837068216920F0FE4040EA0160706030
:103020007047B068F16800F00C000C2870472DE97B
:10303000F84F04460026002C6CD0DFF84472386844
:10304000894600F00F00484506D200F0BFF8386806
:1030500000F00F0048455DD12168DFF80452C80731
:1030600041F2893858D56068DFF818B203284FF06C
:10307000080A27D1286882014CD5EA68E868C0F3BD
:103080000310401C02F00302032A0CBFDFF8F821F2
:10309000DFF8D421B2FBF0F2E868C0F30620424327
:1030A000E868C0F34160401C4000B2FBF0F05845B6
:1030B00016D3AA6812F0F00F0DD0890710D5A068BA
:1030C00070B908E00228286822D1810322D500F0D7
:1030D00083F8584504D3A8686AF30710A8608026CF
:1030E000A9686068890840EA8101A960FFF742FD8C
:1030F0008246A868616800F00C00B0EB810F0BD02D
:10310000FFF738FDA0EB0A004045F2D303205BE057
:103110004105DCD4012057E02068810714D5400721
:1031200003D5A96841F4E061A9602078010704D5BE
:10313000A968072060F30D21A960A968A06821F0A3
:10314000F0010143A96005E0802E03D1A86820F0BA
:10315000F000A860386800F00F0081450FD200F041
:1031600035F8FFF707FD0646386800F00F004845C0
:1031700005D0FFF7FFFC801B4045F5D3C6E720785C
:10318000410705D5AA68E06822F4E0620243AA601C
:103190002178080706D5A968206921F4605141EA21
:1031A000C001A96000F018F8AA683849C2F30312F8
:1031B000895C2C4A01F01F01C8401060BDE8F24F45
:1031C0002A48006800F096BCBDE8F28F396809090A
:1031D00049EA0111396070472D49086800F00C0078
:1031E000042801D120487047086800F00C00082826
:1031F00001D125487047086800F00C000C2818D150
:103200004A684868C0F30310401C02F00302032A16
:103210000CBF1D4A144AB2FBF0F24868C0F3062006
:1032200042434868C0F34160401C4000B2FBF0F0EC
:103230007047002070470B48154A0068136815490D
:10324000C3F3022206E00748114A006813681149D7
:10325000C3F3C222895C01F01F01C840704700001F
:10326000001002400C0000200024F40004000020A4
:1032700090100240007000400C809F01FFFFEEFEA6
:103280000020024001B4C40400127A00C4580008AF
:10329000081002403459000810B56E4C6E49606841
:1032A000884210D12278612A06D16423042204F1D5
:1032B0009401201DFEF7DEFC2146201DBDE81040D4
:1032C0000122FEF733BD10BD70B586B000F034FCAE
:1032D00000F0D6F81421684600F03EFC5F48604CD0
:1032E0000168604D41F004010160026802F00402CF
:1032F00005920599026842F001020260036803F03A
:10330000010305930599026842F00202026000225F
:10331000006800F00200059022210598204600F088
:103320005DFA00224FF48051284600F057FA00223F
:103330004FF404414FF0904000F050FA222100F089
:1033400097F8204600F06CF94FF4805100F090F8A7
:10335000284600F065F94FF4044100F089F84FF079
:10336000904000F05DF9404D404828604FF4827174
:103370004FF4E060E86069601020E86102210720F6
:10338000E8622961082000224FF400716863AA6096
:103390006A61A9612A626A62AA622A63284600F009
:1033A000DFFB08B100F09AF82A4E2B4870604FF40A
:1033B000E131B1600020F060306170610C21F0619A
:1033C00030627062B062F062B161301DFEF712FCD3
:1033D00008B100F083F80021301D00F081FE08B133
:1033E00000F07CF80021301D00F085FE08B100F0EF
:1033F00075F8301D00F056FE08B100F06FF800229D
:103400002021204600F0EAF900220221204600F0A7
:10341000E5F900F0C3FE05F1680001F00CF80122A7
:103420003146301DFEF782FC09A400F045FF00F094
:1034300056FF00F0FCFE05F1680001F03BF8B5F91D
:103440006820214606F1940001F0FCF8EDE7000049
:103450002564000084070020004400404C10024016
:103460000008004800040048A8040020003800407C
:103470000091012200210291039101926946704757
:1034800000B593B0382105A800F066FB142168460A
:1034900000F062FB4FF4007000F06CF802214FF472
:1034A0008072059108924021002209910C9205A892
:1034B000FFF7DAFB08B100F011F8012101910F20AC
:1034C0000090002200210292039104926846FFF7C7
:1034D000AEFD08B100F002F813B000BD72B6FEE711
:1034E00010B5044610460A460146204601F0CAF8C7
:1034F000204610BD1D4A1368016823F00E030B43DC
:103500001B4913604A6822F480324A600B6823F436
:1035100080330B60CA6822F48032CA608A6822F461
:1035200080328A604268D30303D50A6842F480324D
:103530000A604268930303D54A6842F480324A60C5
:103540000279D30703D58A6842F480328A60007911
:10355000820703D5C86840F48030C86000207047F7
:103560000248016841F001010160704704700040A9
:103570000004014030B53222DFF89830DFF8905077
:10358000DFF88810012448B900F01DF820F480709D
:10359000286016D100F01EF80CD412E0B0F5007FC0
:1035A0000AD100F010F840F48070286009D100F0D2
:1035B00011F806D5032030BD0A68022060F34A22C4
:1035C0000A60002030BD086800F4C060B0F5806F6C
:1035D00028687047086864F34A2008601B68DFF8B1
:1035E00038405A43B2FBF4F0401C00E0401E4A69E8
:1035F000530501D50028F9D14869410570470748AE
:10360000016841F480410160704700000070004093
:10361000807000400C00002040420F000870004005
:103620002DE9F84F0027704A704B4FF00F08054600
:103630000E4638E06E4CA54214BF062405248C408B
:103640006C4944EA0E0441F82C40C143D2F808C04A
:10365000746801EA0C0CE40248BF40EA0C0CC2F8A2
:1036600008C0D2F80CC0746801EA0C0CA40248BF70
:1036700040EA0C0CC2F80CC0D2F804C0746801EA2D
:103680000C0CA40348BF40EA0C0CC2F804C0D2F8EA
:1036900000C001EA0C0C7168C90348BF40EA0C0C79
:1036A000C2F800C07F1C316831FA07F000F0948046
:1036B0000124BC4014EA0100F4D04FEA470C032176
:1036C00001FA0CF16FEA010E716801F00309B9F11A
:1036D000010F1CBF01F00301022912D1A968D6F81D
:1036E0000C900EEA010109FA0CF949EA0101A960FE
:1036F000696821EA04047168C1F30011B9400C4300
:103700006C60B900347904F00304032C21D0EC6818
:10371000D6F808900EEA040409FA0CF949EA040400
:10372000EC60347904F00304022C12D1FC0805EBA0
:10373000840401F01C09D4F820A008FA09FB2AEA45
:103740000B0AD6F810B00BFA09F949EA0A09C4F8CD
:1037500020902C680EEA040E347904F0030404FA75
:103760000CF444EA0E0CC5F800C0746814F4403F31
:1037700098D0D3F800C01F4C4CF0010CC3F800C027
:103780004FEA970CD3F800E00EF0010ECDF800E000
:1037900001F00C01DDF800E054F82C4008FA01FEBD
:1037A00024EA0E0EB5F1904F08BF002413D0124C3E
:1037B000A54208BF01240ED0104CA54208BF022428
:1037C00009D00F4CA54208BF032404D00D4CA542DC
:1037D0007FF430AF042432E7BDE8F18F0AB1816194
:1037E0007047816270470000000401406010024091
:1037F0000014004808000140000400480008004888
:10380000000C0048001000482DE9F84305464FF031
:1038100000082868DFF80C62010353D5F06C00241F
:10382000C10009D4F06C40F08050F0640124F06CC9
:1038300000F0805000900098DFF8EC71386840F498
:1038400080703860FFF796F981463868C10508D462
:10385000FFF790F9A0EB09000328F6D34FF0030817
:103860002BE0DFF8C871386810F440701CBF296C79
:1038700088420BD03868396841F48031396020F4CF
:1038800040703A6822F480323A603860C0070ED542
:10389000FFF770F981463868810708D4FFF76AF9A5
:1038A000A0EB090041F289318842F4D3D6E73A68A7
:1038B000286C22F4407202433A601CB1F06C20F094
:1038C0008050F0642878C10705D5F26F68689208C7
:1038D00040EA8202F2672978880705D5F16FA86867
:1038E00021F00C010143F1672978480705D5F16FF4
:1038F000E86821F030010143F1672978080705D510
:10390000F16F286921F0C0010143F1672978880629
:1039100005D5F16F686921F440610143F1672978A9
:10392000480605D5F16FA86921F440510143F167BC
:103930002978080605D5F16FE86921F44041014373
:10394000F1672968C80505D5F16F286A21F440316F
:103950000143F1672968880505D5F16F686A21F48C
:1039600040210143F167296848050AD5F16FA86A2B
:1039700021F440110143F167A96AB1F5801F00F0FD
:103980004AF8296808050AD5F16FE86A21F4400170
:103990000143F167E96AB1F5800F00F03CF829684E
:1039A000C8040AD5F16F286B21F040710143F1671B
:1039B000296BB1F1807F00F02EF82968880408D5C2
:1039C000F16F686B21F040610143F167696B00F0B2
:1039D00020F82968480408D5F16FA86B21F04061F0
:1039E0000143F167A96B00F014F8296808040DD5AC
:1039F000F16FE86B21F040510143F167E96BB1F1E0
:103A0000805F03D1306840F4803030604046BDE8CC
:103A1000F283B1F1006F03D1306840F48010306060
:103A2000704700000C1002400070004090100240EF
:103A30000901020002D4284881547047274B02F044
:103A40000F021A4402F8041C7047254B19684FF600
:103A5000FF020002114000F4E060084321490843DE
:103A60001860704770B51E4B1C68C4F30223012414
:103A7000C3F10705052D2EBF0F2504FA05F56D1EB0
:103A80001E1D072E34BF0023DB1E2940994004FA77
:103A900003F3BDE870405B1E1A401143C8E7000005
:103AA000010007D4012200F01F010F4B8A4040099A
:103AB00043F820207047401EB0F1807F01D30120E1
:103AC00070470A490A4A48600023F02010708B6052
:103AD000072008600020704700E400E018ED00E0D7
:103AE0000CED00E00000FA0500E100E010E000E06D
:103AF00023ED00E070B50E4E0446B0680025A0B17D
:103B00004FF47A710B4AB1FBF0F11068B0FBF1F0A1
:103B1000FFF7D1FF48B9102C07D2002221464FF001
:103B2000FF30FFF79FFF746000E00125284670BD5D
:103B3000000000200C000020032010B5FFF785FFD7
:103B40000F20FFF7D7FF0024002814BF0124FEF741
:103B50006FFF204610BD0000002200F0C7BD00002E
:103B600038B5040001D1012032BD606A30B9606807
:103B7000B0F5827F05D00021E16102E000202061E4
:103B800060610020A06204F15C05687820B9002122
:103B900029702046FEF770FF0220687000F055FA89
:103BA000E168B1F5E06F04D90020B1F5706F03D181
:103BB00004E04FF4805001D00021A1626168A26846
:103BC000237C01F4827102F404421143227D03F04C
:103BD00002031943A36902F001021143227F03F497
:103BE0000073194394F8203002F038021143A26A9E
:103BF00003F080031943236802F400521143196053
:103C0000A16994F8242094F83430090C01F00401DF
:103C100002F010021143E26803F00803194302F4B2
:103C2000706211430843216848602068C16921F42B
:103C30000061C161002068600121697032BD2264A9
:103C40007888411E798070472DE9F047054605F1D7
:103C500044070C46387E91464FF001084FF0000AA9
:103C6000012808BF022000F0EC801E4687F818806B
:103C7000FEF780FF7B7E012B0AD06968B1F5827F59
:103C800002BFA9680029042B02D04FF0020AD3E03A
:103C9000002C18BFB9F1000F00D00EB9C246CBE01E
:103CA0007B7E042B1CBF4FF0050C87F819C0002346
:103CB000FB61C5F840907E803E80AC63EE87AE87A6
:103CC000BB60FB6040F20173E968994238BF022E85
:103CD00004D329684C6824F4805403E029684C68B4
:103CE00044F480544C6029680C68620603D40C6864
:103CF00044F040040C60EA686968089C9A4237D333
:103D0000002918BF012E00F0ABF88146E88F00288B
:103D100004BF7888002836D02968886882070BD5C8
:103D2000E88F002818BFB8F1000F05D0A86B0288F3
:103D3000CA60D04600F08DF829688868C2070BD5A4
:103D4000788848B1C868296C08804FF00108286C51
:103D5000821C2A64FFF774FFFEF70CFFA0EB09003A
:103D6000A042D3D314F1010FD0D04FF0030A63E087
:103D7000002918BF012E00F07FF88146E88F002847
:103D800004BF788800284DD029688868820718D534
:103D9000E88F002818BFB8F1000F12D0A86BEA8F87
:103DA000022A08D30088C860A96B881CA863E98F21
:103DB000881EE88704E002780A7300F044F8E98777
:103DC000D04629688868C2071FD57888E8B1286C72
:103DD0007A88022A10D3C9680180286C821C2A6460
:103DE0007888811E7980788802280CD228684168FA
:103DF00041F48051416006E0097B0170286C421C4F
:103E00002A64FFF71DFF4FF00108FEF7B3FEA0EB99
:103E10000900A04203D314F1010FAFD0A5E7002C95
:103E2000ACD1A2E728464A46214600F014F918B161
:103E300020204FF0010AF8610121797600203876C0
:103E40005046BDE8F087A86B411CA963E88F411E6E
:103E50007047A86B811CA963E88F411EE9877047F2
:103E600009D1A96B2B680A88DA60A96B8A1CAA633E
:103E7000E98F4A1EEA87704715D1A96B2A68EB8F34
:103E8000022B08D30988D160AA6B911CA963EA8F21
:103E9000911EE98770470B781373A96B4A1CAA63BC
:103EA000E98F4A1EEA8770472DE9F843089C0546CA
:103EB0000E4690461F46FEF75DFE381A2418FEF7A0
:103EC00059FE8146DFF8D80101684901090D6143B7
:103ED000009105E0009800B900240098401E009071
:103EE000286881683140B1420CBF01200020404564
:103EF00032D017F1010FF3D0FEF73CFEA0EB090022
:103F0000A04201D2002CE5D12868416821F0E001EF
:103F100041606868B0F5827F0BD1A868B0F5004FAA
:103F200018BFB0F5806F04D12868016821F0400106
:103F30000160A86AB0F5005F09D12868016821F422
:103F4000005101602868026842F40052026005F1E5
:103F50005C0000F06EF800E00020BDE8F2832DE97F
:103F6000FC4706460A9D00208DF800000F461446C7
:103F70009846FEF7FFFDA8EB00002D18FEF7FAFDAE
:103F800081463068DFF818110A6800F10C0A232016
:103F90004243120D6A43019205E0019800B90025E1
:103FA0000198401E0190306881683940A1423DD09F
:103FB000B7F5C06F08BF002C05D19AF800008DF846
:103FC00000009DF8001018F1010FECD0FEF7D2FDB3
:103FD000A0EB0900A84201D2002DDED13068416873
:103FE00021F0E00141607068B0F5827F0BD1B068CC
:103FF000B0F5004F18BFB0F5806F04D1306801688C
:1040000021F040010160B06AB0F5005F09D130686D
:10401000016821F4005101603068026842F40052E6
:10402000026006F15C0000F004F800E00020BDE84A
:10403000F68701214170002202700320704700962C
:104040002B460022802120462EE72068016821F0BF
:104050004001016070477CB50D4616460446009647
:104060002B4600224FF4C051FFF779FF38B9FFF714
:10407000E6FF20B900962B4600F00CF808B100F0DE
:1040800001F876BD206E40F02000206603207047C6
:104090000090642300224FF4C06120465FE70000D7
:1040A0000C00002010B500F180010A78012A01D12E
:1040B000022010BD01220A7024234B60026813689D
:1040C00014686408640014600022426623F0005300
:1040D0000068036020224A6000230B70002010BD9E
:1040E00070B500F01FF801D1022070BD00F020F87B
:1040F00022F0604209E070B500F014F801D102200E
:1041000070BD00F015F822F0606211438160204616
:1041100000F01CF8206806602021696000222A70E7
:10412000002070BD044604F18005287801287047FE
:104130000120287024226A602068066802685208FC
:1041400052000260206882687047000030B5416EFE
:1041500011B90121012214E0016800BF0BA48A6893
:10416000D1F808100BA3520E02F00702490F655C4C
:10417000A45C595C9A5CED00E40095FBF1F194FBC2
:10418000F2F268304180028030BD0000010101037D
:104190000701000008040204080101012DE9FC41A7
:1041A00046F66807384600F0DDFA0124DFF87C6443
:1041B000DFF87C544FF4BA7808FB04F1685C40B136
:1041C00068181C216143314440301C391C22FCF723
:1041D000F5FF641C032CEFDB00F0B0FA00F0A0FA4E
:1041E00006F13C01384600F0D6FA002706EB8700BE
:1041F000DFF8402450F8881F0092836840F25A305C
:10420000B1FBF0F2781CC0B200F0F7FA7F1C032F6C
:10421000ECDB012608FB06F0285C18B10221F0B2A5
:1042200000F033FB761C032EF4DBBDE8F3812DE9AF
:10423000FC4100254FF000086C1C4823DFF8F80310
:104240006B432427034407FB08F708F101061F44CA
:10425000012200F02DF83861032200F029F878617E
:10426000042200F025F8B861012200F01DF8786002
:10427000032200F019F8B860042200F015F8F86085
:1042800007F120030120009007F11C02F1B2E0B217
:1042900000F075FB08F10108B8F1010FCDDD6D1CD0
:1042A000012DC7DDBDE8F381F1B2E0B200F0FEBA46
:1042B000F1B2E0B200F01BBB38B50124DFF8705357
:1042C000E0B24FF4BA714843285C18B10221E0B261
:1042D00000F0D4FA641CE2B2032AF1DB31BD80B5F0
:1042E000012000F0C4FA01224FF48051DFF84C03A2
:1042F000FFF774FA00224FF400414FF09040FFF7AF
:104300006DFABDE80240022000F0B1BA01E0000001
:1043100000BF002101804180C18081800181C16096
:1043200001618182704770B5B0F904208A4238BFBC
:104330008180B0F90630994201D3828A02B9C180E6
:10434000C468828A0C19C46013465D1C94FBF5F4A2
:1043500032B1058902694D1B0E1B15FB062505614F
:104360000481026992FBF3F223E070B50A0048BFB2
:104370005242B0F904409442B8BF8180B0F906407F
:10438000A24201DB828A02B9C180C2688B18828A8C
:10439000C3601446651C93FBF5F332B105890269CD
:1043A0004D1BCE1A15FB062505610381026992FBA0
:1043B000F4F202804180838A5B1C838270BD0022FC
:1043C0000274C0E9002241747047F0B505460C46FE
:1043D00095F810C0D5E90001BCF1000F02D1002012
:1043E000002102E0BCF1020F02D14FF0010C05E008
:1043F000D5E90267A61B801941EBE67185F810C06C
:104400000027C5E902478E4E14462A7C4AB922008D
:1044100014BF00224FF0FF32326001222A7432684A
:1044200000E00A461BB1002C14BF521C521E326021
:10443000C5E90001F0BD58B50446FFF767FF04F178
:104440003000FFF763FF04F11800FFF75FFF04F18E
:104450004800FFF75BFF04F16000FFF757FF04F12E
:104460007800FFF753FF04F19000FFF751FF04F1CC
:10447000A8000022C0E900220026C0E90262C0E9CB
:104480000422C0E90622002104F1D800FFF797FFBB
:10449000002104F1F000FFF792FF002104F5847081
:1044A000FFF78DFF002104F59070FFF788FFC4F837
:1044B000406151BDF8B504460121012000F011FE14
:1044C00001462046FFF72FFF0121012000F023FEC7
:1044D000014604F13000FFF726FF0121012000F022
:1044E000EFFD014604F11800FFF71DFF012000F069
:1044F000D5F9014604F17800FFF715FF04220121E8
:10450000012000F097FB01B204F19000FFF72DFFAE
:1045100000F079F804F1A805296A81420CD100F075
:104520006DF8696A814207D1D4F840010328B4BF0D
:10453000401C0020C4F8400100F065F8286200F03B
:104540005DF86862012200F067F8C5E90001032206
:1045500000F062F8C5E90201022200F05DF8C5E949
:104560000401042200F058F8C5E9060100F058F8EB
:10457000A8620D2200F04CF8064600F051F8421EE9
:10458000D5E900179241D20FF3B204F1D800FFF73A
:104590001CFF0B2200F03CF806460D2200F041F80B
:1045A000421ED5E902179241D20FF3B204F1F00096
:1045B000FFF70BFF0C2200F02BF806460E2200F04E
:1045C00030F8421ED5E904179241D20FF3B204F538
:1045D0009070FFF7FAFE0A2200F01AF806460C2245
:1045E00000F01FF8D5E90617F3B201B0421E04F53A
:1045F0008470BDE8F0409241D20FE6E6022201212C
:10460000012000F0E6BD02220121012000F0BCBD26
:104610000121012000F048BC0121012000F05ABB1B
:104620000F220121012000F08FBB0000F45600088A
:104630004800002001AF01001C08002000040048D1
:104640007C0900200CB430B583B00A4606A902915B
:10465000044600250194009502AB01A9084878445E
:104660001E30FBF7BCFD019A157000284EBF0446B2
:104670000198041B204603B030BC5DF80CFB00BF62
:1046800063CAFFFF62F30F2262F31F42401810F06B
:10469000030308D0C91A1FD3DB0748BF00F8012D58
:1046A00028BF20F8022D130030B4144615461039E7
:1046B00028BF20E93C00FAD8490728BF20E90C00B0
:1046C00048BF40F8042D890028BF20F8022D48BFBC
:1046D00000F8012D30BC7047C91818BF00F8012D33
:1046E000CB0728BF00F8012D7047000000B500BFC0
:1046F000130096469446103928BFA0E80C50FAD80B
:104700005FEA417C28BF0CC048BF40F8042BC907B2
:1047100028BF20F8022B48BF00F8012B00BD000085
:1047200038B50124B44D00F017F810B1E0B200F034
:1047300083F9641CE0B20328F5DB31BD38B50124F0
:10474000AD4D00F009F810B1E0B200F0D5F9641CED
:10475000E0B20328F5DB31BDE0B24FF4BA71484353
:10476000285C704780B5A44901F5BA7200F00F03C8
:104770001370C0F30313537001F53A72030A000B70
:1047800000F00F0003F00F0350701370084600F0A4
:104790003BF9002002BD70B504460D46964E14F05C
:1047A0000F0F1CBF96F8740100280CD02B46132263
:1047B0000021012000F059F806F5E87313220021CA
:1047C000012000F050F800F03AF800F031F814F051
:1047D0000F0F1CBF96F8E80200280CD02B461322BE
:1047E0000021022000F041F806F551731322002148
:1047F000022000F038F8002070BD2DE9F843804613
:10480000089FDFF8F491B8F1010F0C4615461E46DB
:1048100009F5BC7000F019F800F011F800F008F884
:10482000B8F1010F09F53B7000F00FF8BDE8F18316
:1048300000224FF400414FF09040FEF7CFBF01221D
:104840004FF480516D48FEF7C9BF04D10460456044
:10485000066147617047B8F1020F03D18460C560FB
:104860008661C761704700F0D4B800F0DBB880B54E
:104870000328B8BF00F0A9F9002002BD80B50328C5
:10488000B8BF00F056F9002002BD4FF4BA725A4B7F
:104890005043184480F824100020704780B501462A
:1048A000012000F053FCC004000C02BDF8B5064620
:1048B0000D4600F0BFF94FF4BA714F4B4E43002440
:1048C0009A19012D01D1526802E0022D0DD1D26852
:1048D000C117A2FB00670A2002FB0177A0FB064577
:1048E00000FB0755240F44EA05142046F2BD2DE9CC
:1048F000F04104460D46164600F0ECF92B46142113
:104900003F4A4B43D1183F4B51F826709F4201EB71
:10491000860205D3B0F1C04F02D2D36B5B1C06E018
:10492000B7F1C04F04D2984202D3D36B5B1ED3635E
:1049300041F826000021D36B461841EB03084FF4E1
:10494000BA702D4944430819012D07D182683046B9
:104950004146A2FB006802FB018808E0022D06D157
:10496000046930464146A4FB006804FB01880A271D
:10497000A7FB062307FB08331846BDE8F0812DE9A5
:10498000F44F07460E461D4600F09AFB824631461C
:10499000384600F0A6FB02464FF4BA70164947436A
:1049A000C819012E07BF4169D0F818C0C169D0F8F5
:1049B00020C00A26A1FB0A89A6FB080106FB0911F3
:1049C000C00B40EA4140ACFB024B21465F46A6FBD0
:1049D000014B0A9B06FB07BB640C009E44EACB34E8
:1049E0001BB9C6F800A02A6003E0012B04BF3060A9
:1049F0002C60BDE8F18F0000480000200004004852
:104A0000AC080020010000A0DFF81412C8620020EA
:104A100070471CB5040003D00091694600F0FDFC0E
:104A2000002016BD3EB5050004D000F0FEF800F0F1
:104A3000F4F80446E0B23EBDF8B504005BD025466C
:104A40006422DFF8E011DFF8D87112FB05F28E184E
:104A50004FF4BA70F96A454329444FF48272086CE6
:104A600030600021B1604FF4E060F06002213161FC
:104A7000012070614FF400717260B1611820F06123
:104A80000021072231627162B162F2623046FFF7A3
:104A900067F83068016841F040010160204601215B
:104AA00000F058FD00F041F848F6B80000F0F8FBBF
:104AB000204600F0ADFB00F038F80021204600F061
:104AC00049FD642000F0ECFB0121204600F042FD8E
:104AD00044F6206000F0E4FBF86A284400F15C032F
:104AE00001220021204600F098FC20B9F86A00213C
:104AF000415528444170F1BD10B5040014D0002187
:104B000000F028FD00F011F80021204600F027FDFC
:104B100000F00BF80121204600F021FDBDE8104017
:104B20004FF47A7000F0BCBB10BD4FF47A7000F007
:104B3000B7BB3EB504460020220001903ED00129BB
:104B4000DFF8DC0029D039D3032901D014D337BDD5
:104B500000F035F80125416E21F40011416600F1A5
:104B6000640321F480014166012241F400014166A1
:104B70000095042101910BE000F021F80421436E1F
:104B800043F4C003436601220191009200F16403E3
:104B900001A9204600F0C6FB37BD204600F0F1FC1D
:104BA0000021204600F0EDFC0A2000F079FB0121F5
:104BB000204600F0E6FC0A2000F072FB37BDC16A17
:104BC0004FF4BA70424388187047F8B5040022D0F9
:104BD00025464FF4BA70DFF848604543F06A411942
:104BE000405D062801F1B0030ED12A27009721224B
:104BF0006946204600F011FC8422F06A00922844A5
:104C000000F5B273042202E02A20009031226946A6
:104C1000204600F002FCF1BD000001A900F082BBBB
:104C2000240900205806002010210191012400943D
:104C30007047000070B500F014FA49D000F03AFA5D
:104C40006343521E3344062A03F58A733ED8DFE8D5
:104C500002F0040C141C242C3400012908BF18682D
:104C600032D0022932D1186B2EE0012908BF5868D2
:104C70002AD002292AD1586B26E0012908BF98685A
:104C800022D0022922D1986B1EE0012908BFD868E2
:104C90001AD002291AD1D86B16E0012908BF186969
:104CA00012D0022912D1186C0EE0012908BF5869F0
:104CB0000AD002290AD1586C06E0012908BF986978
:104CC00002D0022902D1986C20F06040000100114E
:104CD00070BD000070B50023040027D000F029F853
:104CE00000F5827022D8DFE802F0020A121A0129C8
:104CF00008BF03681AD0022918D1036B16E00129F6
:104D000008BF436812D0022910D1436B0EE001297D
:104D100008BF83680AD0022908D1836B06E0012905
:104D200008BFC36802D0022908BFC36B1846D91751
:104D300070BD044DEE6A4FF4BA746043521E3044A5
:104D4000032A70472409002070B500F08AF914D0B6
:104D500000F037FAB033142A0FD8DFE802F00BA4C2
:104D6000A4131D3F3751272F49A479818991596197
:104D700069719B00012901D1186870BD0229FCD11D
:104D8000586870BD012908BF186802D0022902D1F5
:104D90005868C0F3836070BD012908BF186802D04D
:104DA000022902D15868C0F3835070BD012908BFA1
:104DB000186802D0022976D1586856E1012908BF47
:104DC000186802D002296ED1586851E1012908BF44
:104DD000186802D0022966D158684CE1012908BF41
:104DE000186802D002295ED15868C0F3C33070BD84
:104DF000012908BF186802D0022954D158683DE142
:104E0000012908BF186802D002294CD1586838E13E
:104E1000012908BF186802D0022944D1586833E13B
:104E2000012908BF186802D002293CD158682EE138
:104E3000012908BF186802D0022934D1586829E135
:104E4000012908BF186802D002292CD1586824E132
:104E5000012908BF186802D0022924D158681FE12F
:104E6000012908BF186802D002291CD158681AE12C
:104E7000012908BF186802D0022914D1586815E129
:104E8000012908BF186802D002290CD15868C0F364
:104E9000001070BD012908BF186802D0022902D194
:104EA0005868C0F3803070BD70B500F0DAF814D0E7
:104EB00000F087F99C33152A0FD8DFE802F00BD1F8
:104EC0001C1326303A444E58868E98A2ACB6C0C801
:104ED000626C767E012901D1186870BD0229FCD16F
:104EE000586870BD012908BF186802D0022901D195
:104EF0005868C00F70BD012908BF186802D0022988
:104F000002D15868C0F3807070BD012908BF1868CD
:104F100002D0022902D15868C0F3407070BD012947
:104F200008BF186802D0022902D15868C0F3007087
:104F300070BD012908BF186802D0022902D1586843
:104F4000C0F3C06070BD012908BF186802D00229F3
:104F500002D15868C0F3806070BD012908BF18688D
:104F600002D002297CD15868C0F3406070BD01298D
:104F700008BF186802D0022972D15868C0F30060D7
:104F800070BD012908BF186802D0022968D158688D
:104F9000C0F3C05070BD012908BF186802D00229B3
:104FA0005ED15868C0F3805070BD012908BF1868F1
:104FB00002D0022954D1586857E0012908BF186867
:104FC00002D002294CD1586852E0012901D1186859
:104FD00051E0022944D1586856E0012903D11868EC
:104FE000C0F3804070BD02293AD158684FE00129D2
:104FF00003D11868C0F3404070BD022930D1586811
:1050000048E0012903D11868C0F3004070BD0229AF
:1050100026D1586841E0012903D11868C0F3C03097
:1050200070BD02291CD158683AE0012903D11868E3
:10503000C0F3803070BD022912D1586833E00129D5
:1050400001D118681AE002290AD158682EE0012916
:1050500001D1186815E0022904BF5868C0F3001098
:1050600070BD034600201C007047C0F3405070BD67
:10507000C0F3005070BDC0F3C04070BDC0F34030FD
:1050800070BDC0F3003070BDC0F3C02070BDC0F370
:10509000802070BDC0F3402070BDC0F3002070BD03
:1050A000C0F3C01070BDC0F3801070BDC0F34010DD
:1050B00070BD0000DFF81856EE6A4FF4BA747047FE
:1050C00002460020130000D1704730B500F019F8F7
:1050D00008BF106802D0022902D15068C0F30E0048
:1050E00030BD02460020130000D1704730B500F0FB
:1050F00008F808BF106802D0022901D15068C00B1F
:1051000030BDDFF8CC45E56A4FF4BA735A432A4400
:10511000EC320129704702460020130000D170478D
:1051200030B500F009F808BF106802D0022902D19A
:105130009068C0F30B4030BDDFF89445E56A4FF44A
:10514000BA735A432A44F8320129704702460020B4
:10515000130018D00229DFF8783509D1D96A4FF445
:10516000BA7042438818D0F8B820C2F30B40704799
:10517000012908D1D96A4FF4BA7042438818D0F88F
:10518000B800C0F30B00704770B5FFF76AFF17D087
:1051900000F017F8BC33012907D1022A08BF1869AB
:1051A0000CD0012A0CD1186808E0022908D1022A83
:1051B00008BF986902D0012A02D1986820F07F4088
:1051C00070BDDFF80C55EE6A4FF4BA746343334494
:1051D000704770B5FFF745FF19D0FFF7F2FFC033F6
:1051E000012907D1022A08BF18690ED0012A0ED161
:1051F00018680AE0022918BF032908D1022A08BF4B
:10520000986902D0012A02D1986820F07F4070BDD1
:1052100038B50546012100F0B4F9032400212846E1
:1052200000F0AFF9642000F03BF80121284600F0BF
:10523000A8F9642000F034F8641EEFD131BD30B518
:105240004FF4BA714843DFF88814CA6A024402F185
:10525000300301F1300401F130051C605D60002372
:1052600082F82A300022CB6A03F12C040D1D22544F
:105270000C1DCB6A034483F82920CA6A024402F158
:1052800038031C605D60002382F82B300022CB6A5B
:10529000034483F82D20C96A084480F8282030BDD3
:1052A000DFF83014DFF830240968914208BF4FF46A
:1052B000856110D0DFF82424914208BF40F21E31EE
:1052C00009D0DFF81C34994203D14FF405725043E2
:1052D00002E04FF485714843000A032828BFC01E2E
:1052E0000021DFF8002403E013685B1C1360491CF5
:1052F0008142F9D3704730B5024600200023D9B26D
:10530000545C082180EA040540002D0648BF80F067
:1053100007006400491EF5D15B1CD9B20429EEDBFD
:10532000C0B230BD2DE9F04F80460C46DFF8A073C7
:1053300085B015469A4600F06BF82821381D00F01C
:10534000D5F940464FF0000BFFF779FFD94615B964
:105350000121019102E06D062D0E019500214046CC
:1053600000F0F8F8049445464FF4BA700E9C10FB18
:1053700005F502AE36E0FF2004998DF808000BF128
:10538000050B0878484470709AF80020B2709AF8BB
:105390000100F0700AF1020A02A802680092684651
:1053A000FFF7A9FF30710522F86A00F1340302A962
:1053B0005859FBF703FFF86A00F1340134304A59B9
:1053C000531D4351404600F0E1F8012C05D1F96A24
:1053D000491991F82B000028F9D04046FFF72FFF1C
:1053E00009F1010901995FFA89F08842C3DB0121C3
:1053F000404600F0AFF84046FFF721FF00F008F804
:105400002821381D00F072F9584605B0BDE8F08F2C
:10541000282107F1300000F069B92DE9FC4F8146E1
:105420000E46AB4D85B0924600F087F82821281D26
:1054300000F05CF900F077F830788DF80C0003AFDD
:10544000FF2603A800F07EF838714C464FF4BA707E
:1054500010FB04F4E86A00F134030522185903A98B
:10546000FBF7ACFE00F061F80021484600F072F84E
:10547000484600F08BF8002102918DF800A04FF013
:105480000008DDF818A04FF0050BE96A091991F83A
:105490002B0058B90298401C029040F2F511029876
:1054A0008842F2D300F03FF8002039E000F03BF8EA
:1054B00025E003A88DF80C6000F044F8387105224F
:1054C000E86A00F1340303A91859FBF777FE00F0EE
:1054D0002CF8484600F05AF8E96A09190BF1050B57
:1054E00091F82B000028FDD0886B5FFA88F10AEB59
:1054F00081020168116000F016F808F101089DF8BA
:1055000000105FFA88F08842D3D30121484600F0AA
:1055100021F800F012F82821281D00F0E7F858467D
:1055200007B0BDE8F08F484689E6E86A00F134012B
:1055300034300A59531D03517047282105F13000BA
:1055400000F0D4B87E70BE70FE7001A902680A60D7
:1055500001A8D0E610B500F00CF8443003E010B517
:1055600000F007F8543081880068BDE81040FEF76D
:1055700035B9574BDC6A0A464FF4BA7148432044A8
:10558000704710B5FFF7F5FF4C30ECE7F8B5504E1B
:10559000F16A044625464FF4BA70454301F12C02E6
:1055A00051190878002840F081804A681178204617
:1055B00000F07DF80146F06A28442C30012742684B
:1055C0000770531C4360F06A284480F82810F26A80
:1055D0002A44283253691069834215D10023D370BD
:1055E0000127F26A2A4482F82D30321DF06A2844DD
:1055F0002830331D0261436102783271477143697B
:105600005A1C4261012017E03078401CC7B2042FB9
:105610000EDC12781A70F26A02F13C035F597B1CAF
:1056200002F13C072A447B51012382F82D3003E02C
:10563000D078401CD07000203070F06A421902F11E
:105640003003586860B31B682932984211D100209A
:1056500050700022F06A00F12C0306F130075A5511
:1056600006F13002F06A00F1300334305A514751EC
:105670000BE01B781370F06A00F130022844535994
:105680005F1C5751012280F82A20F06A28442930F3
:105690004278012A04D10178204600F008F801463A
:1056A000F26A02F12C03585D00288CD1F1BD32B5AD
:1056B00082B00A24009464240B4D6043012301AAA4
:1056C00002A92844FEF7C0FA9DF804003EBD000080
:1056D000240900200C00002000D8B80500A24A04CC
:1056E000006CDC02A4040020580600200022FEF713
:1056F000CDBF00000038004000040048001000004A
:1057000000000048000400000008004820000000DD
:105710000038004000000048008000000000004801
:105720000004000000080048020000006868000053
:10573000A0000004A0000024E0C40000000000005D
:1057400000F83F0000F83F0000F83F0000F83F007D
:10575000FF0F0000FF0F0000FF0F0000FF0F000011
:105760002703270327032703000000000000000091
:105770000000000000000000074000006D1FCC0189
:105780006D1FCC0132C6010032C601004E6500001B
:105790004E65000000000000100000000100000045
:1057A0000024F400E6130008E6130008E6130008DE
:1057B000E6130008E6130008E6130008E6130008E5
:1057C000FFFFFFFFFFFFFFFF62110008E613000865
:1057D000E6130008FFFFFFFFFFFF000030B40025C5
:1057E00012E050F8042BD30744BF4A44521E091F4D
:1057F000042942F8045BFAD213468C0744BF158093
:105800009B1CC90748BF1D7050F8041B0029E8D134
:1058100030BC704710B5074979441831064C7C44B8
:10582000163404E00A68081D114488470146A14265
:10583000F8D110BD2C0000004C0000004EF688513D
:10584000CEF20001086840F470000860BFF34F8F8B
:10585000BFF36F8F4FF00170E1EE100A7047000048
:105860007DFFFFFF3C090000480000200000000011
:1058700033B8FFFF480000001CFFFFFF00000020BE
:1058800000000000FEE7FEE7FEE7FEE7FEE77047E8
:105890007047704700F006B80148FCF779BA00007D
:1058A0008807002002490A68886882180A607047E1
:1058B000000000200248016841F470010160704757
:1058C00088ED00E000000000000000000102030479
:1058D0000607080900F00DF8002801D0FFF79AFF2D
:1058E000AFF300800020AFF30080FDF7EDFC00F087
:1058F00002F80120704700F001B800000746384662
:10590000FCF76EF9FBE700000548014603B4684662
:1059100080F30988AFF30080FFF790FFFFF7DAFF0D
:10592000A5EDF5FE0148804701480047B55800083D
:10593000095900080000000001020304FFF7FEBF40
:10594000FFF7FEBFFFF7FEBFFFF7FEBFFFF7FEBF8B
:10595000FFF7FEBFFFF7FEBFFFF7FEBFFFF7FEBF7B
:10596000FFF7FEBFFFF7FEBFFFF7FEBFFFF7FEBF6B
:10597000FFF7FEBFFFF7FEBFFFF7FEBFFFF7FEBF5B
:10598000FFF7FEBFFFF7FEBFFFF7FEBFFFF7FEBF4B
:10599000FFF7FEBFFFF7FEBFFFF7FEBFFFF7FEBF3B
:1059A000FFF7FEBFFFF7FEBFFFF7FEBFFFF7FEBF2B
:1059B000FFF7FEBFFFF7FEBFFFF7FEBFFFF7FEBF1B
:1059C000FFF7FEBFFFF7FEBFFFF7FEBFFFF7FEBF0B
:1059D000FFF7FEBFFFF7FEBFFFF7FEBFFFF7FEBFFB
:1059E000FFF7FEBFFFF7FEBFFFF7FEBFFFF7FEBFEB
:1059F000FFF7FEBFFFF7FEBFFFF7FEBFFFF7FEBFDB
:105A0000FFF7FEBFFFF7FEBFFFF7FEBFFFF7FEBFCA
:105A1000FFF7FEBFFFF7FEBFFFF7FEBFFFF7FEBFBA
:105A2000FFF7FEBFFFF7FEBFFFF7FEBFFFF7FEBFAA
:105A3000FFF7FEBFFFF7FEBFFFF7FEBFFFF7FEBF9A
:105A4000FFF7FEBFFFF7FEBFFFF7FEBFFFF7FEBF8A
:04000005080059098D
:00000001FF
